{
  "contractName": "Evidence",
  "abi": [
    {
      "inputs": [],
      "payable": false,
      "stateMutability": "nonpayable",
      "type": "constructor"
    },
    {
      "anonymous": false,
      "inputs": [
        {
          "indexed": false,
          "internalType": "string",
          "name": "message",
          "type": "string"
        },
        {
          "indexed": false,
          "internalType": "uint256",
          "name": "caseId",
          "type": "uint256"
        }
      ],
      "name": "CaseCreated",
      "type": "event"
    },
    {
      "anonymous": false,
      "inputs": [
        {
          "indexed": false,
          "internalType": "string",
          "name": "message",
          "type": "string"
        }
      ],
      "name": "EvidenceCreated",
      "type": "event"
    },
    {
      "constant": false,
      "inputs": [],
      "name": "createCase",
      "outputs": [],
      "payable": false,
      "stateMutability": "nonpayable",
      "type": "function"
    },
    {
      "constant": false,
      "inputs": [
        {
          "internalType": "uint256",
          "name": "caseId",
          "type": "uint256"
        },
        {
          "internalType": "uint256",
          "name": "docId",
          "type": "uint256"
        },
        {
          "internalType": "string",
          "name": "baseAdd",
          "type": "string"
        }
      ],
      "name": "insertEvidence",
      "outputs": [],
      "payable": false,
      "stateMutability": "nonpayable",
      "type": "function"
    },
    {
      "constant": true,
      "inputs": [
        {
          "internalType": "uint256",
          "name": "caseId",
          "type": "uint256"
        },
        {
          "internalType": "uint256",
          "name": "docId",
          "type": "uint256"
        }
      ],
      "name": "getEvidenceInfo",
      "outputs": [
        {
          "internalType": "uint256",
          "name": "",
          "type": "uint256"
        },
        {
          "internalType": "uint256",
          "name": "",
          "type": "uint256"
        },
        {
          "internalType": "string",
          "name": "",
          "type": "string"
        }
      ],
      "payable": false,
      "stateMutability": "view",
      "type": "function"
    },
    {
      "constant": true,
      "inputs": [
        {
          "internalType": "uint256",
          "name": "caseId",
          "type": "uint256"
        }
      ],
      "name": "getCaseInfo",
      "outputs": [
        {
          "internalType": "string",
          "name": "",
          "type": "string"
        },
        {
          "internalType": "uint256",
          "name": "",
          "type": "uint256"
        },
        {
          "components": [
            {
              "internalType": "uint256",
              "name": "docId",
              "type": "uint256"
            },
            {
              "internalType": "string",
              "name": "baseAdd",
              "type": "string"
            }
          ],
          "internalType": "struct Evidence.CaseInfo[]",
          "name": "",
          "type": "tuple[]"
        }
      ],
      "payable": false,
      "stateMutability": "view",
      "type": "function"
    }
  ],
  "bytecode": "0x608060405234801561001057600080fd5b5060008081905550610eb6806100276000396000f3fe608060405234801561001057600080fd5b506004361061004c5760003560e01c80631b9505ea146100515780631d85fdac1461005b57806369246d8714610077578063c30cd28f146100a9575b600080fd5b6100596100db565b005b6100756004803603610070919081019061093e565b61015a565b005b610091600480360361008c9190810190610902565b610309565b6040516100a093929190610cce565b60405180910390f35b6100c360048036036100be91908101906108d9565b610522565b6040516100d293929190610bfb565b60405180910390f35b60008081548092919060010191905055506000546001600080548152602001908152602001600020600001819055507f61db2bee1b6a5c4c35bc25d487944f36be7bd1e5eb0c771d4a4a9c8cc43175e96001600080548152602001908152602001600020600001546040516101509190610ca0565b60405180910390a1565b600083141580156101805750826001600085815260200190815260200160002060000154145b156102ce57600082141580156101c05750816001600085815260200190815260200160002060020160008481526020019081526020016000206000015414155b156102935781600160008581526020019081526020016000206002016000848152602001908152602001600020600001819055508060016000858152602001908152602001600020600201600084815260200190815260200160002060010190805190602001906102329291906107b1565b5060016000848152602001908152602001600020600101600081548092919060010191905055507fc2e6db28773c295a1e98714e72df1006b3a1dfd413511c9af0b6075c6aeb78cf60405161028690610c80565b60405180910390a16102c9565b7fc2e6db28773c295a1e98714e72df1006b3a1dfd413511c9af0b6075c6aeb78cf6040516102c090610c40565b60405180910390a15b610304565b7fc2e6db28773c295a1e98714e72df1006b3a1dfd413511c9af0b6075c6aeb78cf6040516102fb90610c60565b60405180910390a15b505050565b6000806060600085141580156103345750846001600087815260200190815260200160002060000154145b156104d5576000841415801561037357508360016000878152602001908152602001600020600201600086815260200190815260200160002060000154145b1561048b57600160008681526020019081526020016000206000015460016000878152602001908152602001600020600201600086815260200190815260200160002060000154600160008881526020019081526020016000206002016000878152602001908152602001600020600101808054600181600116156101000203166002900480601f0160208091040260200160405190810160405280929190818152602001828054600181600116156101000203166002900480156104795780601f1061044e57610100808354040283529160200191610479565b820191906000526020600020905b81548152906001019060200180831161045c57829003601f168201915b5050505050905092509250925061051b565b6000808191508090506040518060400160405280601381526020017f446f63494420646f65736e27742045786973740000000000000000000000000081525092509250925061051b565b6000808191508090506040518060400160405280601481526020017f43617365494420646f65736e27742045786973740000000000000000000000008152509250925092505b9250925092565b6060600060606000841415801561054e5750836001600086815260200190815260200160002060000154145b156107625760006001600086815260200190815260200160002060010154141561059d5760608481604051806060016040528060298152602001610e4b602991399190935093509350506107aa565b606060016000868152602001908152602001600020600101546040519080825280602002602001820160405280156105ef57816020015b6105dc610831565b8152602001906001900390816105d45790505b5090506000600190505b6001600087815260200190815260200160002060010154811161071b5760016000878152602001908152602001600020600201600082815260200190815260200160002060405180604001604052908160008201548152602001600182018054600181600116156101000203166002900480601f0160208091040260200160405190810160405280929190818152602001828054600181600116156101000203166002900480156106eb5780601f106106c0576101008083540402835291602001916106eb565b820191906000526020600020905b8154815290600101906020018083116106ce57829003601f168201915b50505050508152505082600183038151811061070357fe5b602002602001018190525080806001019150506105f9565b5084816040518060400160405280601481526020017f5375636365737366756c6c7920466574636865640000000000000000000000008152509190935093509350506107aa565b60606000816040518060400160405280600a81526020017f496e76616c6964204944000000000000000000000000000000000000000000008152509190819150935093509350505b9193909250565b828054600181600116156101000203166002900490600052602060002090601f016020900481019282601f106107f257805160ff1916838001178555610820565b82800160010185558215610820579182015b8281111561081f578251825591602001919060010190610804565b5b50905061082d919061084b565b5090565b604051806040016040528060008152602001606081525090565b61086d91905b80821115610869576000816000905550600101610851565b5090565b90565b600082601f83011261088157600080fd5b813561089461088f82610d39565b610d0c565b915080825260208301602083018583830111156108b057600080fd5b6108bb838284610de0565b50505092915050565b6000813590506108d381610e33565b92915050565b6000602082840312156108eb57600080fd5b60006108f9848285016108c4565b91505092915050565b6000806040838503121561091557600080fd5b6000610923858286016108c4565b9250506020610934858286016108c4565b9150509250929050565b60008060006060848603121561095357600080fd5b6000610961868287016108c4565b9350506020610972868287016108c4565b925050604084013567ffffffffffffffff81111561098f57600080fd5b61099b86828701610870565b9150509250925092565b60006109b18383610ba0565b905092915050565b60006109c482610d75565b6109ce8185610da3565b9350836020820285016109e085610d65565b8060005b85811015610a1c57848403895281516109fd85826109a5565b9450610a0883610d96565b925060208a019950506001810190506109e4565b50829750879550505050505092915050565b6000610a3982610d8b565b610a438185610dc5565b9350610a53818560208601610def565b610a5c81610e22565b840191505092915050565b6000610a7282610d80565b610a7c8185610db4565b9350610a8c818560208601610def565b610a9581610e22565b840191505092915050565b6000610aad600d83610dc5565b91507f496e76616c696420446f634944000000000000000000000000000000000000006000830152602082019050919050565b6000610aed600e83610dc5565b91507f496e76616c6964204361736549440000000000000000000000000000000000006000830152602082019050919050565b6000610b2d601b83610dc5565b91507f45766469656e6365204164646564205375636365737366756c6c7900000000006000830152602082019050919050565b6000610b6d601a83610dc5565b91507f53756363657366756c6c792063726561746564206120436173650000000000006000830152602082019050919050565b6000604083016000830151610bb86000860182610bdd565b5060208301518482036020860152610bd08282610a67565b9150508091505092915050565b610be681610dd6565b82525050565b610bf581610dd6565b82525050565b60006060820190508181036000830152610c158186610a2e565b9050610c246020830185610bec565b8181036040830152610c3681846109b9565b9050949350505050565b60006020820190508181036000830152610c5981610aa0565b9050919050565b60006020820190508181036000830152610c7981610ae0565b9050919050565b60006020820190508181036000830152610c9981610b20565b9050919050565b60006040820190508181036000830152610cb981610b60565b9050610cc86020830184610bec565b92915050565b6000606082019050610ce36000830186610bec565b610cf06020830185610bec565b8181036040830152610d028184610a2e565b9050949350505050565b6000604051905081810181811067ffffffffffffffff82111715610d2f57600080fd5b8060405250919050565b600067ffffffffffffffff821115610d5057600080fd5b601f19601f8301169050602081019050919050565b6000819050602082019050919050565b600081519050919050565b600081519050919050565b600081519050919050565b6000602082019050919050565b600082825260208201905092915050565b600082825260208201905092915050565b600082825260208201905092915050565b6000819050919050565b82818337600083830152505050565b60005b83811015610e0d578082015181840152602081019050610df2565b83811115610e1c576000848401525b50505050565b6000601f19601f8301169050919050565b610e3c81610dd6565b8114610e4757600080fd5b5056fe43617365204578697374206275742045766964656e63657320617265206e6f742075706c6f61646564a365627a7a723158208e0ddd5960d7546a700c045d601c39499d1a88f2b32f58bbf00661bd76c1e38f6c6578706572696d656e74616cf564736f6c63430005100040",
  "source": "// SPDX-License-Identifier: UNLICENSED\r\npragma solidity >=0.5.0 <=0.9.0;\r\npragma experimental ABIEncoderV2;\r\n\r\ncontract Evidence {\r\n   uint noOfCases;\r\n   constructor ()public{\r\n      noOfCases=0;\r\n   }\r\n   struct CaseInfo{\r\n      uint docId;\r\n      string baseAdd;\r\n   }\r\n   struct Case{\r\n      uint caseId;\r\n      uint noOfDocs;\r\n      mapping(uint => CaseInfo) allDocs;\r\n   }\r\n   \r\n\r\n   mapping(uint => Case) allCases;\r\n\r\n   event CaseCreated(\r\n        string message,\r\n        uint caseId\r\n   );\r\n\r\n   function createCase()public{\r\n      noOfCases++;\r\n      allCases[noOfCases].caseId=noOfCases;\r\n      emit  CaseCreated(\"Succesfully created a Case\",allCases[noOfCases].caseId);\r\n   }\r\n   \r\n   event EvidenceCreated(\r\n        string message\r\n   );\r\n\r\n   function insertEvidence(uint caseId,uint docId,string memory baseAdd)public {\r\n      if(caseId!=0 && allCases[caseId].caseId==caseId){\r\n         if(docId!=0 && allCases[caseId].allDocs[docId].docId!=docId){\r\n            // if(bytes(baseAdd).length==0){\r\n            //    emit EvidenceCreated(\"Cannot create empty Evidence\");\r\n            // }\r\n            allCases[caseId].allDocs[docId].docId=docId;\r\n            allCases[caseId].allDocs[docId].baseAdd=baseAdd;\r\n            allCases[caseId].noOfDocs++;\r\n            emit EvidenceCreated(\"Evdience Added Successfully\");\r\n         }\r\n         else{\r\n            emit EvidenceCreated(\"Invalid DocID\");\r\n         }\r\n      }\r\n      else{\r\n         emit EvidenceCreated(\"Invalid CaseID\");\r\n      }\r\n   }\r\n\r\n   function getEvidenceInfo(uint caseId,uint docId) public view returns(uint,uint,string memory){\r\n      if(caseId!=0 && allCases[caseId].caseId==caseId){\r\n         if(docId!=0 && allCases[caseId].allDocs[docId].docId==docId){\r\n               return (allCases[caseId].caseId,\r\n            allCases[caseId].allDocs[docId].docId,  \r\n            allCases[caseId].allDocs[docId].baseAdd);\r\n         }\r\n         else{\r\n            return(0,0,\"DocID doesn't Exist\");\r\n         }\r\n      }\r\n      else{\r\n         return(0,0,\"CaseID doesn't Exist\");\r\n      }\r\n      \r\n   }\r\n\r\n\r\n   function getCaseInfo(uint caseId) public view returns(string memory,uint,CaseInfo[] memory){\r\n      if(caseId!=0 && allCases[caseId].caseId==caseId){\r\n         if(allCases[caseId].noOfDocs==0){\r\n            CaseInfo[] memory M;\r\n            return(\"Case Exist but Evidences are not uploaded\",caseId,M);\r\n         }\r\n         CaseInfo[] memory m=new CaseInfo[](allCases[caseId].noOfDocs);\r\n         for(uint i = 1; i <=allCases[caseId].noOfDocs; i++) {\r\n               m[i-1] = allCases[caseId].allDocs[i];\r\n         }\r\n         return(\"Successfully Fetched\",caseId,m);\r\n      }\r\n      else{\r\n         CaseInfo[] memory m;\r\n         return(\"Invalid ID\",0,m);\r\n      }\r\n   } \r\n}\r\n\r\n",
  "sourcePath": "E:\\solidity\\Block-Chain-Mini-Project\\frontend\\contracts\\evidence.sol",
  "compiler": {
    "name": "solc",
    "version": "0.5.16+commit.9c3226ce.Emscripten.clang"
  },
  "schemaVersion": "3.4.11",
  "updatedAt": "2022-12-10T10:12:05.804Z",
  "networkType": "ethereum",
  "devdoc": {
    "methods": {}
  },
  "userdoc": {
    "methods": {}
  }
}