{
  "contractName": "Evidence",
  "abi": [
    {
      "inputs": [],
      "payable": false,
      "stateMutability": "nonpayable",
      "type": "constructor"
    },
    {
      "anonymous": false,
      "inputs": [
        {
          "indexed": false,
          "internalType": "string",
          "name": "message",
          "type": "string"
        },
        {
          "indexed": false,
          "internalType": "uint256",
          "name": "caseId",
          "type": "uint256"
        }
      ],
      "name": "CaseCreated",
      "type": "event"
    },
    {
      "anonymous": false,
      "inputs": [
        {
          "indexed": false,
          "internalType": "string",
          "name": "message",
          "type": "string"
        }
      ],
      "name": "EvidenceCreated",
      "type": "event"
    },
    {
      "constant": false,
      "inputs": [
        {
          "internalType": "string",
          "name": "_description",
          "type": "string"
        }
      ],
      "name": "createCase",
      "outputs": [],
      "payable": false,
      "stateMutability": "nonpayable",
      "type": "function"
    },
    {
      "constant": false,
      "inputs": [
        {
          "internalType": "uint256",
          "name": "caseId",
          "type": "uint256"
        },
        {
          "internalType": "uint256",
          "name": "docId",
          "type": "uint256"
        },
        {
          "internalType": "string",
          "name": "baseAdd",
          "type": "string"
        }
      ],
      "name": "insertEvidence",
      "outputs": [],
      "payable": false,
      "stateMutability": "nonpayable",
      "type": "function"
    },
    {
      "constant": true,
      "inputs": [
        {
          "internalType": "uint256",
          "name": "caseId",
          "type": "uint256"
        },
        {
          "internalType": "uint256",
          "name": "docId",
          "type": "uint256"
        }
      ],
      "name": "getEvidenceInfo",
      "outputs": [
        {
          "internalType": "uint256",
          "name": "",
          "type": "uint256"
        },
        {
          "internalType": "uint256",
          "name": "",
          "type": "uint256"
        },
        {
          "internalType": "string",
          "name": "",
          "type": "string"
        }
      ],
      "payable": false,
      "stateMutability": "view",
      "type": "function"
    },
    {
      "constant": true,
      "inputs": [
        {
          "internalType": "uint256",
          "name": "caseId",
          "type": "uint256"
        }
      ],
      "name": "getCaseInfo",
      "outputs": [
        {
          "internalType": "string",
          "name": "",
          "type": "string"
        },
        {
          "internalType": "uint256",
          "name": "",
          "type": "uint256"
        },
        {
          "internalType": "string",
          "name": "",
          "type": "string"
        },
        {
          "components": [
            {
              "internalType": "uint256",
              "name": "docId",
              "type": "uint256"
            },
            {
              "internalType": "string",
              "name": "baseAdd",
              "type": "string"
            }
          ],
          "internalType": "struct Evidence.CaseInfo[]",
          "name": "",
          "type": "tuple[]"
        }
      ],
      "payable": false,
      "stateMutability": "view",
      "type": "function"
    }
  ],
  "bytecode": "0x608060405234801561001057600080fd5b5060008081905550611028806100276000396000f3fe608060405234801561001057600080fd5b506004361061004c5760003560e01c80631d85fdac1461005157806369246d871461006d578063c30cd28f1461009f578063d0d10af1146100d2575b600080fd5b61006b60048036036100669190810190610a9b565b6100ee565b005b61008760048036036100829190810190610a5f565b61029d565b60405161009693929190610e40565b60405180910390f35b6100b960048036036100b49190810190610a36565b6104b6565b6040516100c99493929190610d58565b60405180910390f35b6100ec60048036036100e791908101906109f5565b610821565b005b600083141580156101145750826001600085815260200190815260200160002060000154145b1561026257600082141580156101545750816001600085815260200190815260200160002060030160008481526020019081526020016000206000015414155b156102275781600160008581526020019081526020016000206003016000848152602001908152602001600020600001819055508060016000858152602001908152602001600020600301600084815260200190815260200160002060010190805190602001906101c69291906108cd565b5060016000848152602001908152602001600020600101600081548092919060010191905055507fc2e6db28773c295a1e98714e72df1006b3a1dfd413511c9af0b6075c6aeb78cf60405161021a90610df2565b60405180910390a161025d565b7fc2e6db28773c295a1e98714e72df1006b3a1dfd413511c9af0b6075c6aeb78cf60405161025490610db2565b60405180910390a15b610298565b7fc2e6db28773c295a1e98714e72df1006b3a1dfd413511c9af0b6075c6aeb78cf60405161028f90610dd2565b60405180910390a15b505050565b6000806060600085141580156102c85750846001600087815260200190815260200160002060000154145b15610469576000841415801561030757508360016000878152602001908152602001600020600301600086815260200190815260200160002060000154145b1561041f57600160008681526020019081526020016000206000015460016000878152602001908152602001600020600301600086815260200190815260200160002060000154600160008881526020019081526020016000206003016000878152602001908152602001600020600101808054600181600116156101000203166002900480601f01602080910402602001604051908101604052809291908181526020018280546001816001161561010002031660029004801561040d5780601f106103e25761010080835404028352916020019161040d565b820191906000526020600020905b8154815290600101906020018083116103f057829003601f168201915b505050505090509250925092506104af565b6000808191508090506040518060400160405280601381526020017f446f63494420646f65736e2774204578697374000000000000000000000000008152509250925092506104af565b6000808191508090506040518060400160405280601481526020017f43617365494420646f65736e27742045786973740000000000000000000000008152509250925092505b9250925092565b60606000606080600085141580156104e35750846001600087815260200190815260200160002060000154145b156107bf576000600160008781526020019081526020016000206001015414156105455760608581604051806060016040528060298152602001610fbd602991399190604051806020016040528060008152509094509450945094505061081a565b6060600160008781526020019081526020016000206001015460405190808252806020026020018201604052801561059757816020015b61058461094d565b81526020019060019003908161057c5790505b5090506000600190505b600160008881526020019081526020016000206001015481116106c35760016000888152602001908152602001600020600301600082815260200190815260200160002060405180604001604052908160008201548152602001600182018054600181600116156101000203166002900480601f0160208091040260200160405190810160405280929190818152602001828054600181600116156101000203166002900480156106935780601f1061066857610100808354040283529160200191610693565b820191906000526020600020905b81548152906001019060200180831161067657829003601f168201915b5050505050815250508260018303815181106106ab57fe5b602002602001018190525080806001019150506105a1565b508560016000888152602001908152602001600020600201826040518060400160405280601481526020017f5375636365737366756c6c792046657463686564000000000000000000000000815250929190818054600181600116156101000203166002900480601f0160208091040260200160405190810160405280929190818152602001828054600181600116156101000203166002900480156107aa5780601f1061077f576101008083540402835291602001916107aa565b820191906000526020600020905b81548152906001019060200180831161078d57829003601f168201915b5050505050915094509450945094505061081a565b60606000816040518060400160405280600a81526020017f496e76616c696420494400000000000000000000000000000000000000000000815250919081915060405180602001604052806000815250909450945094509450505b9193509193565b6000808154809291906001019190505550600054600160008054815260200190815260200160002060000181905550806001600080548152602001908152602001600020600201908051906020019061087b9291906108cd565b507f61db2bee1b6a5c4c35bc25d487944f36be7bd1e5eb0c771d4a4a9c8cc43175e96001600080548152602001908152602001600020600001546040516108c29190610e12565b60405180910390a150565b828054600181600116156101000203166002900490600052602060002090601f016020900481019282601f1061090e57805160ff191683800117855561093c565b8280016001018555821561093c579182015b8281111561093b578251825591602001919060010190610920565b5b5090506109499190610967565b5090565b604051806040016040528060008152602001606081525090565b61098991905b8082111561098557600081600090555060010161096d565b5090565b90565b600082601f83011261099d57600080fd5b81356109b06109ab82610eab565b610e7e565b915080825260208301602083018583830111156109cc57600080fd5b6109d7838284610f52565b50505092915050565b6000813590506109ef81610fa5565b92915050565b600060208284031215610a0757600080fd5b600082013567ffffffffffffffff811115610a2157600080fd5b610a2d8482850161098c565b91505092915050565b600060208284031215610a4857600080fd5b6000610a56848285016109e0565b91505092915050565b60008060408385031215610a7257600080fd5b6000610a80858286016109e0565b9250506020610a91858286016109e0565b9150509250929050565b600080600060608486031215610ab057600080fd5b6000610abe868287016109e0565b9350506020610acf868287016109e0565b925050604084013567ffffffffffffffff811115610aec57600080fd5b610af88682870161098c565b9150509250925092565b6000610b0e8383610cfd565b905092915050565b6000610b2182610ee7565b610b2b8185610f15565b935083602082028501610b3d85610ed7565b8060005b85811015610b795784840389528151610b5a8582610b02565b9450610b6583610f08565b925060208a01995050600181019050610b41565b50829750879550505050505092915050565b6000610b9682610efd565b610ba08185610f37565b9350610bb0818560208601610f61565b610bb981610f94565b840191505092915050565b6000610bcf82610ef2565b610bd98185610f26565b9350610be9818560208601610f61565b610bf281610f94565b840191505092915050565b6000610c0a600d83610f37565b91507f496e76616c696420446f634944000000000000000000000000000000000000006000830152602082019050919050565b6000610c4a600e83610f37565b91507f496e76616c6964204361736549440000000000000000000000000000000000006000830152602082019050919050565b6000610c8a601b83610f37565b91507f45766469656e6365204164646564205375636365737366756c6c7900000000006000830152602082019050919050565b6000610cca601a83610f37565b91507f53756363657366756c6c792063726561746564206120436173650000000000006000830152602082019050919050565b6000604083016000830151610d156000860182610d3a565b5060208301518482036020860152610d2d8282610bc4565b9150508091505092915050565b610d4381610f48565b82525050565b610d5281610f48565b82525050565b60006080820190508181036000830152610d728187610b8b565b9050610d816020830186610d49565b8181036040830152610d938185610b8b565b90508181036060830152610da78184610b16565b905095945050505050565b60006020820190508181036000830152610dcb81610bfd565b9050919050565b60006020820190508181036000830152610deb81610c3d565b9050919050565b60006020820190508181036000830152610e0b81610c7d565b9050919050565b60006040820190508181036000830152610e2b81610cbd565b9050610e3a6020830184610d49565b92915050565b6000606082019050610e556000830186610d49565b610e626020830185610d49565b8181036040830152610e748184610b8b565b9050949350505050565b6000604051905081810181811067ffffffffffffffff82111715610ea157600080fd5b8060405250919050565b600067ffffffffffffffff821115610ec257600080fd5b601f19601f8301169050602081019050919050565b6000819050602082019050919050565b600081519050919050565b600081519050919050565b600081519050919050565b6000602082019050919050565b600082825260208201905092915050565b600082825260208201905092915050565b600082825260208201905092915050565b6000819050919050565b82818337600083830152505050565b60005b83811015610f7f578082015181840152602081019050610f64565b83811115610f8e576000848401525b50505050565b6000601f19601f8301169050919050565b610fae81610f48565b8114610fb957600080fd5b5056fe43617365204578697374206275742045766964656e63657320617265206e6f742075706c6f61646564a365627a7a723158203bc15bbf6ef970d2100ffb0ea84538b0fa4e184132da1f2e56fa8497ad2daedb6c6578706572696d656e74616cf564736f6c63430005100040",
  "source": "// SPDX-License-Identifier: UNLICENSED\r\npragma solidity >=0.5.0 <=0.9.0;\r\npragma experimental ABIEncoderV2;\r\n\r\ncontract Evidence {\r\n   uint noOfCases;\r\n   constructor ()public{\r\n      noOfCases=0;\r\n   }\r\n   struct CaseInfo{\r\n      uint docId;\r\n      string baseAdd;\r\n   }\r\n   struct Case{\r\n      uint caseId;\r\n      uint noOfDocs;\r\n      string description;\r\n      mapping(uint => CaseInfo) allDocs;\r\n   }\r\n   \r\n\r\n   mapping(uint => Case) allCases;\r\n\r\n   event CaseCreated(\r\n        string message,\r\n        uint caseId\r\n   );\r\n\r\n   function createCase(string memory _description)public{\r\n      noOfCases++;\r\n      allCases[noOfCases].caseId=noOfCases;\r\n      allCases[noOfCases].description=_description;\r\n      emit  CaseCreated(\"Succesfully created a Case\",allCases[noOfCases].caseId);\r\n   }\r\n   \r\n   event EvidenceCreated(\r\n        string message\r\n   );\r\n\r\n   function insertEvidence(uint caseId,uint docId,string memory baseAdd)public {\r\n      if(caseId!=0 && allCases[caseId].caseId==caseId){\r\n         if(docId!=0 && allCases[caseId].allDocs[docId].docId!=docId){\r\n            // if(bytes(baseAdd).length==0){\r\n            //    emit EvidenceCreated(\"Cannot create empty Evidence\");\r\n            // }\r\n            allCases[caseId].allDocs[docId].docId=docId;\r\n            allCases[caseId].allDocs[docId].baseAdd=baseAdd;\r\n            allCases[caseId].noOfDocs++;\r\n            emit EvidenceCreated(\"Evdience Added Successfully\");\r\n         }\r\n         else{\r\n            emit EvidenceCreated(\"Invalid DocID\");\r\n         }\r\n      }\r\n      else{\r\n         emit EvidenceCreated(\"Invalid CaseID\");\r\n      }\r\n   }\r\n\r\n   function getEvidenceInfo(uint caseId,uint docId) public view returns(uint,uint,string memory){\r\n      if(caseId!=0 && allCases[caseId].caseId==caseId){\r\n         if(docId!=0 && allCases[caseId].allDocs[docId].docId==docId){\r\n               return (allCases[caseId].caseId,\r\n            allCases[caseId].allDocs[docId].docId,  \r\n            allCases[caseId].allDocs[docId].baseAdd);\r\n         }\r\n         else{\r\n            return(0,0,\"DocID doesn't Exist\");\r\n         }\r\n      }\r\n      else{\r\n         return(0,0,\"CaseID doesn't Exist\");\r\n      }\r\n      \r\n   }\r\n\r\n\r\n   function getCaseInfo(uint caseId) public view returns(string memory,uint,string memory,CaseInfo[] memory){\r\n      if(caseId!=0 && allCases[caseId].caseId==caseId){\r\n         if(allCases[caseId].noOfDocs==0){\r\n            CaseInfo[] memory M;\r\n            return(\"Case Exist but Evidences are not uploaded\",caseId,\"\",M);\r\n         }\r\n         CaseInfo[] memory m=new CaseInfo[](allCases[caseId].noOfDocs);\r\n         for(uint i = 1; i <=allCases[caseId].noOfDocs; i++) {\r\n               m[i-1] = allCases[caseId].allDocs[i];\r\n         }\r\n         return(\"Successfully Fetched\",caseId,allCases[caseId].description,m);\r\n      }\r\n      else{\r\n         CaseInfo[] memory m;\r\n         return(\"Invalid ID\",0,\"\",m);\r\n      }\r\n   } \r\n}\r\n\r\n",
  "sourcePath": "E:\\solidity\\Block-Chain-Mini-Project\\frontend\\contracts\\evidence.sol",
  "compiler": {
    "name": "solc",
    "version": "0.5.16+commit.9c3226ce.Emscripten.clang"
  },
  "schemaVersion": "3.4.11",
  "updatedAt": "2022-12-12T08:52:09.696Z",
  "networkType": "ethereum",
  "devdoc": {
    "methods": {}
  },
  "userdoc": {
    "methods": {}
  }
}