{
  "contractName": "userStorage",
  "abi": [
    {
      "anonymous": false,
      "inputs": [
        {
          "indexed": false,
          "internalType": "string",
          "name": "message",
          "type": "string"
        }
      ],
      "name": "appendChain",
      "type": "event"
    },
    {
      "anonymous": false,
      "inputs": [
        {
          "indexed": false,
          "internalType": "string",
          "name": "message",
          "type": "string"
        }
      ],
      "name": "createCaseInfo",
      "type": "event"
    },
    {
      "anonymous": false,
      "inputs": [
        {
          "indexed": false,
          "internalType": "string",
          "name": "message",
          "type": "string"
        },
        {
          "indexed": false,
          "internalType": "uint256",
          "name": "",
          "type": "uint256"
        }
      ],
      "name": "createUser",
      "type": "event"
    },
    {
      "anonymous": false,
      "inputs": [
        {
          "indexed": false,
          "internalType": "string",
          "name": "message",
          "type": "string"
        }
      ],
      "name": "transferOwnerShipInfo",
      "type": "event"
    },
    {
      "constant": true,
      "inputs": [],
      "name": "noOfUsers",
      "outputs": [
        {
          "internalType": "uint256",
          "name": "",
          "type": "uint256"
        }
      ],
      "payable": false,
      "stateMutability": "view",
      "type": "function"
    },
    {
      "constant": false,
      "inputs": [
        {
          "internalType": "string",
          "name": "_name",
          "type": "string"
        },
        {
          "internalType": "string",
          "name": "_role",
          "type": "string"
        },
        {
          "internalType": "uint256",
          "name": "_age",
          "type": "uint256"
        },
        {
          "internalType": "string",
          "name": "_password",
          "type": "string"
        },
        {
          "internalType": "string",
          "name": "_email",
          "type": "string"
        }
      ],
      "name": "register",
      "outputs": [],
      "payable": false,
      "stateMutability": "nonpayable",
      "type": "function"
    },
    {
      "constant": true,
      "inputs": [
        {
          "internalType": "uint256",
          "name": "_id",
          "type": "uint256"
        },
        {
          "internalType": "string",
          "name": "_email",
          "type": "string"
        },
        {
          "internalType": "string",
          "name": "_password",
          "type": "string"
        }
      ],
      "name": "login",
      "outputs": [
        {
          "internalType": "string",
          "name": "",
          "type": "string"
        }
      ],
      "payable": false,
      "stateMutability": "view",
      "type": "function"
    },
    {
      "constant": true,
      "inputs": [
        {
          "internalType": "uint256",
          "name": "_id",
          "type": "uint256"
        }
      ],
      "name": "getUserDetails",
      "outputs": [
        {
          "components": [
            {
              "internalType": "uint256",
              "name": "id",
              "type": "uint256"
            },
            {
              "internalType": "string",
              "name": "name",
              "type": "string"
            },
            {
              "internalType": "string",
              "name": "role",
              "type": "string"
            },
            {
              "internalType": "uint256",
              "name": "age",
              "type": "uint256"
            },
            {
              "internalType": "string",
              "name": "password",
              "type": "string"
            },
            {
              "internalType": "string",
              "name": "email",
              "type": "string"
            },
            {
              "internalType": "uint256[]",
              "name": "createdCases",
              "type": "uint256[]"
            },
            {
              "internalType": "uint256[]",
              "name": "onChainCases",
              "type": "uint256[]"
            },
            {
              "internalType": "uint256[]",
              "name": "ownershipCases",
              "type": "uint256[]"
            }
          ],
          "internalType": "struct userStorage.User",
          "name": "",
          "type": "tuple"
        }
      ],
      "payable": false,
      "stateMutability": "view",
      "type": "function"
    },
    {
      "constant": false,
      "inputs": [
        {
          "internalType": "uint256",
          "name": "_senderId",
          "type": "uint256"
        },
        {
          "internalType": "uint256",
          "name": "_receiverId",
          "type": "uint256"
        },
        {
          "internalType": "uint256",
          "name": "_caseId",
          "type": "uint256"
        }
      ],
      "name": "appendIntoChain",
      "outputs": [],
      "payable": false,
      "stateMutability": "nonpayable",
      "type": "function"
    },
    {
      "constant": false,
      "inputs": [
        {
          "internalType": "uint256",
          "name": "_id",
          "type": "uint256"
        },
        {
          "internalType": "uint256",
          "name": "_caseId",
          "type": "uint256"
        }
      ],
      "name": "createCase",
      "outputs": [],
      "payable": false,
      "stateMutability": "nonpayable",
      "type": "function"
    },
    {
      "constant": false,
      "inputs": [
        {
          "internalType": "uint256",
          "name": "_senderId",
          "type": "uint256"
        },
        {
          "internalType": "uint256",
          "name": "_receiverId",
          "type": "uint256"
        },
        {
          "internalType": "uint256",
          "name": "_caseId",
          "type": "uint256"
        }
      ],
      "name": "transferOwnerShip",
      "outputs": [],
      "payable": false,
      "stateMutability": "nonpayable",
      "type": "function"
    }
  ],
  "bytecode": "0x6080604052600060015534801561001557600080fd5b50611d01806100256000396000f3fe608060405234801561001057600080fd5b506004361061007d5760003560e01c80638499cfe31161005b5780638499cfe3146100ec57806384fb60ff14610108578063af03b01014610124578063ca8dedc0146101405761007d565b806301934a83146100825780631c1a9f7b146100a05780634519035f146100d0575b600080fd5b61008a610170565b6040516100979190611b45565b60405180910390f35b6100ba60048036036100b591908101906113de565b610176565b6040516100c79190611b23565b60405180910390f35b6100ea60048036036100e59190810190611486565b610547565b005b61010660048036036101019190810190611307565b61067c565b005b610122600480360361011d91908101906114c2565b61083f565b005b61013e600480360361013991908101906114c2565b610bb9565b005b61015a60048036036101559190810190611407565b610e88565b60405161016791906119f3565b60405180910390f35b60015481565b61017e611160565b6000808381526020019081526020016000206040518061012001604052908160008201548152602001600182018054600181600116156101000203166002900480601f01602080910402602001604051908101604052809291908181526020018280546001816001161561010002031660029004801561023f5780601f106102145761010080835404028352916020019161023f565b820191906000526020600020905b81548152906001019060200180831161022257829003601f168201915b50505050508152602001600282018054600181600116156101000203166002900480601f0160208091040260200160405190810160405280929190818152602001828054600181600116156101000203166002900480156102e15780601f106102b6576101008083540402835291602001916102e1565b820191906000526020600020905b8154815290600101906020018083116102c457829003601f168201915b5050505050815260200160038201548152602001600482018054600181600116156101000203166002900480601f01602080910402602001604051908101604052809291908181526020018280546001816001161561010002031660029004801561038d5780601f106103625761010080835404028352916020019161038d565b820191906000526020600020905b81548152906001019060200180831161037057829003601f168201915b50505050508152602001600582018054600181600116156101000203166002900480601f01602080910402602001604051908101604052809291908181526020018280546001816001161561010002031660029004801561042f5780601f106104045761010080835404028352916020019161042f565b820191906000526020600020905b81548152906001019060200180831161041257829003601f168201915b505050505081526020016006820180548060200260200160405190810160405280929190818152602001828054801561048757602002820191906000526020600020905b815481526020019060010190808311610473575b50505050508152602001600782018054806020026020016040519081016040528092919081815260200182805480156104df57602002820191906000526020600020905b8154815260200190600101908083116104cb575b505050505081526020016008820180548060200260200160405190810160405280929190818152602001828054801561053757602002820191906000526020600020905b815481526020019060010190808311610523575b5050505050815250509050919050565b60008211801561056b57508160008084815260200190815260200160002060000154145b15610678576000811115610677576000808381526020019081526020016000206006018190806001815401808255809150509060018203906000526020600020016000909192909190915055506000808381526020019081526020016000206008018190806001815401808255809150509060018203906000526020600020016000909192909190915055506000808381526020019081526020016000206007018190806001815401808255809150509060018203906000526020600020016000909192909190915055507f9b77c208fa507cff82a07f7c237730f3daad62f1596d2f1e4674ea8b4cb656a360405161066390611ac3565b60405180910390a161067682838361083f565b5b5b5050565b606060016000815480929190600101919050555060015460008060015481526020019081526020016000206000018190555085600080600154815260200190815260200160002060010190805190602001906106d99291906111ac565b5084600080600154815260200190815260200160002060020190805190602001906107059291906111ac565b5083600080600154815260200190815260200160002060030181905550826000806001548152602001908152602001600020600401908051906020019061074d9291906111ac565b5081600080600154815260200190815260200160002060050190805190602001906107799291906111ac565b5080600080600154815260200190815260200160002060060190805190602001906107a592919061122c565b5080600080600154815260200190815260200160002060070190805190602001906107d192919061122c565b5080600080600154815260200190815260200160002060080190805190602001906107fd92919061122c565b507f121ef243ddb4d5428c076edd3c3ebfa0fe0e7810b2408f5245dd5d8ffa1e5c7860015460405161082f9190611a75565b60405180910390a1505050505050565b60008311801561086357508260008085815260200190815260200160002060000154145b15610b7d5760008090505b600080858152602001908152602001600020600601805490508110156109ef578160008086815260200190815260200160002060060182815481106108af57fe5b906000526020600020015414156109e2576000831180156108e457508260008085815260200190815260200160002060000154145b156109a757600082111561096c576000808481526020019081526020016000206007018290806001815401808255809150509060018203906000526020600020016000909192909190915055507f6fc5745462ab3310444243f731f292d9c48421c43cd802237361ee418fb713a260405161095e90611a15565b60405180910390a150610bb4565b7f6fc5745462ab3310444243f731f292d9c48421c43cd802237361ee418fb713a260405161099990611a55565b60405180910390a150610bb4565b7f6fc5745462ab3310444243f731f292d9c48421c43cd802237361ee418fb713a26040516109d490611ae3565b60405180910390a150610bb4565b808060010191505061086e565b5060008090505b60008085815260200190815260200160002060080180549050811015610b4257816000808681526020019081526020016000206008018281548110610a3757fe5b90600052602060002001541415610b3557600083118015610a6c57508260008085815260200190815260200160002060000154145b15610afa576000821115610abf5760008084815260200190815260200160002060070182908060018154018082558091505090600182039060005260206000200160009091929091909150555050610bb4565b7f6fc5745462ab3310444243f731f292d9c48421c43cd802237361ee418fb713a2604051610aec90611a55565b60405180910390a150610bb4565b7f6fc5745462ab3310444243f731f292d9c48421c43cd802237361ee418fb713a2604051610b2790611ae3565b60405180910390a150610bb4565b80806001019150506109f6565b507f6fc5745462ab3310444243f731f292d9c48421c43cd802237361ee418fb713a2604051610b7090611a35565b60405180910390a1610bb3565b7f6fc5745462ab3310444243f731f292d9c48421c43cd802237361ee418fb713a2604051610baa90611b03565b60405180910390a15b5b505050565b600083118015610bdd57508260008085815260200190815260200160002060000154145b15610e4c5760008090505b60008085815260200190815260200160002060080180549050811015610e1157816000808681526020019081526020016000206008018281548110610c2957fe5b90600052602060002001541415610e0457600083118015610c5e57508260008085815260200190815260200160002060000154145b15610dc9576000821115610d8e576000808481526020019081526020016000206008018290806001815401808255809150509060018203906000526020600020016000909192909190915055506000808581526020019081526020016000206008016001600080878152602001908152602001600020600801805490500381548110610ce657fe5b90600052602060002001546000808681526020019081526020016000206008018281548110610d1157fe5b9060005260206000200181905550600080858152602001908152602001600020600801805480610d3d57fe5b600190038181906000526020600020016000905590557f788b7c7b4604a4aff213cb46dbbe7b35d1560668f175c91c029fbff74511fd64604051610d8090611aa3565b60405180910390a150610e83565b7f788b7c7b4604a4aff213cb46dbbe7b35d1560668f175c91c029fbff74511fd64604051610dbb90611a55565b60405180910390a150610e83565b7f788b7c7b4604a4aff213cb46dbbe7b35d1560668f175c91c029fbff74511fd64604051610df690611ae3565b60405180910390a150610e83565b8080600101915050610be8565b507f788b7c7b4604a4aff213cb46dbbe7b35d1560668f175c91c029fbff74511fd64604051610e3f90611a35565b60405180910390a1610e82565b7f788b7c7b4604a4aff213cb46dbbe7b35d1560668f175c91c029fbff74511fd64604051610e7990611b03565b60405180910390a15b5b505050565b6060600084118015610eae57508360008086815260200190815260200160002060000154145b1561112057600080858152602001908152602001600020600501805460018160011615610100020316600290049050835114610f21576040518060400160405280600d81526020017f496e76616c696420456d61696c000000000000000000000000000000000000008152509050611159565b600080858152602001908152602001600020600501604051602001610f4691906119dc565b6040516020818303038152906040528051906020012060001c83604051602001610f7091906119c5565b6040516020818303038152906040528051906020012060001c14610fcb576040518060400160405280600d81526020017f496e76616c696420456d61696c000000000000000000000000000000000000008152509050611159565b600080858152602001908152602001600020600401805460018160011615610100020316600290049050825114611039576040518060400160405280601081526020017f496e76616c69642050617373776f7264000000000000000000000000000000008152509050611159565b60008085815260200190815260200160002060040160405160200161105e91906119dc565b6040516020818303038152906040528051906020012060001c8260405160200161108891906119c5565b6040516020818303038152906040528051906020012060001c146110e3576040518060400160405280601081526020017f496e76616c69642050617373776f7264000000000000000000000000000000008152509050611159565b6040518060400160405280600981526020017f4c6f6767656420696e00000000000000000000000000000000000000000000008152509050611159565b6040518060400160405280600a81526020017f496e76616c69642049440000000000000000000000000000000000000000000081525090505b9392505050565b6040518061012001604052806000815260200160608152602001606081526020016000815260200160608152602001606081526020016060815260200160608152602001606081525090565b828054600181600116156101000203166002900490600052602060002090601f016020900481019282601f106111ed57805160ff191683800117855561121b565b8280016001018555821561121b579182015b8281111561121a5782518255916020019190600101906111ff565b5b5090506112289190611279565b5090565b828054828255906000526020600020908101928215611268579160200282015b8281111561126757825182559160200191906001019061124c565b5b5090506112759190611279565b5090565b61129b91905b8082111561129757600081600090555060010161127f565b5090565b90565b600082601f8301126112af57600080fd5b81356112c26112bd82611b8d565b611b60565b915080825260208301602083018583830111156112de57600080fd5b6112e9838284611c54565b50505092915050565b60008135905061130181611ca7565b92915050565b600080600080600060a0868803121561131f57600080fd5b600086013567ffffffffffffffff81111561133957600080fd5b6113458882890161129e565b955050602086013567ffffffffffffffff81111561136257600080fd5b61136e8882890161129e565b945050604061137f888289016112f2565b935050606086013567ffffffffffffffff81111561139c57600080fd5b6113a88882890161129e565b925050608086013567ffffffffffffffff8111156113c557600080fd5b6113d18882890161129e565b9150509295509295909350565b6000602082840312156113f057600080fd5b60006113fe848285016112f2565b91505092915050565b60008060006060848603121561141c57600080fd5b600061142a868287016112f2565b935050602084013567ffffffffffffffff81111561144757600080fd5b6114538682870161129e565b925050604084013567ffffffffffffffff81111561147057600080fd5b61147c8682870161129e565b9150509250925092565b6000806040838503121561149957600080fd5b60006114a7858286016112f2565b92505060206114b8858286016112f2565b9150509250929050565b6000806000606084860312156114d757600080fd5b60006114e5868287016112f2565b93505060206114f6868287016112f2565b9250506040611507868287016112f2565b9150509250925092565b600061151d83836119a7565b60208301905092915050565b600061153482611bde565b61153e8185611c0c565b935061154983611bb9565b8060005b8381101561157a5781516115618882611511565b975061156c83611bff565b92505060018101905061154d565b5085935050505092915050565b600061159282611bf4565b61159c8185611c2e565b93506115ac818560208601611c63565b6115b581611c96565b840191505092915050565b60006115cb82611bf4565b6115d58185611c3f565b93506115e5818560208601611c63565b80840191505092915050565b60006115fc82611be9565b6116068185611c1d565b9350611616818560208601611c63565b61161f81611c96565b840191505092915050565b600081546001811660008114611647576001811461166c576116b0565b607f60028304166116588187611c3f565b955060ff19831686528086019350506116b0565b6002820461167a8187611c3f565b955061168585611bc9565b60005b828110156116a757815481890152600182019150602081019050611688565b82880195505050505b505092915050565b60006116c5602083611c2e565b91507f596f752061726520696e2061757468656e74696361746564206e6574776f726b6000830152602082019050919050565b6000611705600c83611c2e565b91507f4e6f206f776e65727368697000000000000000000000000000000000000000006000830152602082019050919050565b6000611745601283611c2e565b91507f4361736520494420697320696e76616c696400000000000000000000000000006000830152602082019050919050565b6000611785600c83611c2e565b91507f55736572204372656174656400000000000000000000000000000000000000006000830152602082019050919050565b60006117c5601583611c2e565b91507f4f776e657253686970205472616e7366657272656400000000000000000000006000830152602082019050919050565b6000611805601583611c2e565b91507f4361736520616464656420746f206163636f756e7400000000000000000000006000830152602082019050919050565b6000611845601283611c2e565b91507f5573657220494420697320696e76616c696400000000000000000000000000006000830152602082019050919050565b6000611885601383611c2e565b91507f4f776e657220494420697320496e76616c6964000000000000000000000000006000830152602082019050919050565b6000610120830160008301516118d160008601826119a7565b50602083015184820360208601526118e982826115f1565b9150506040830151848203604086015261190382826115f1565b915050606083015161191860608601826119a7565b506080830151848203608086015261193082826115f1565b91505060a083015184820360a086015261194a82826115f1565b91505060c083015184820360c08601526119648282611529565b91505060e083015184820360e086015261197e8282611529565b91505061010083015184820361010086015261199a8282611529565b9150508091505092915050565b6119b081611c4a565b82525050565b6119bf81611c4a565b82525050565b60006119d182846115c0565b915081905092915050565b60006119e8828461162a565b915081905092915050565b60006020820190508181036000830152611a0d8184611587565b905092915050565b60006020820190508181036000830152611a2e816116b8565b9050919050565b60006020820190508181036000830152611a4e816116f8565b9050919050565b60006020820190508181036000830152611a6e81611738565b9050919050565b60006040820190508181036000830152611a8e81611778565b9050611a9d60208301846119b6565b92915050565b60006020820190508181036000830152611abc816117b8565b9050919050565b60006020820190508181036000830152611adc816117f8565b9050919050565b60006020820190508181036000830152611afc81611838565b9050919050565b60006020820190508181036000830152611b1c81611878565b9050919050565b60006020820190508181036000830152611b3d81846118b8565b905092915050565b6000602082019050611b5a60008301846119b6565b92915050565b6000604051905081810181811067ffffffffffffffff82111715611b8357600080fd5b8060405250919050565b600067ffffffffffffffff821115611ba457600080fd5b601f19601f8301169050602081019050919050565b6000819050602082019050919050565b60008190508160005260206000209050919050565b600081519050919050565b600081519050919050565b600081519050919050565b6000602082019050919050565b600082825260208201905092915050565b600082825260208201905092915050565b600082825260208201905092915050565b600081905092915050565b6000819050919050565b82818337600083830152505050565b60005b83811015611c81578082015181840152602081019050611c66565b83811115611c90576000848401525b50505050565b6000601f19601f8301169050919050565b611cb081611c4a565b8114611cbb57600080fd5b5056fea365627a7a7231582001616956e4b83808dceea7e1adef43551536c730a33fd62847b4a90b7ce1e3496c6578706572696d656e74616cf564736f6c63430005100040",
  "source": "// SPDX-License-Identifier: UNLICENSED\r\npragma solidity >=0.4.21 <=0.9.0;\r\npragma experimental ABIEncoderV2;\r\n\r\n\r\ncontract userStorage {\r\n    struct User {\r\n        uint256 id;\r\n        string name;\r\n        string role;\r\n        uint256 age;\r\n        string password;\r\n        string email;\r\n        uint256[] createdCases;\r\n        uint256[] onChainCases;\r\n        uint256[] ownershipCases;\r\n    }\r\n\r\n    mapping(uint256 => User) users;\r\n    uint256 public noOfUsers = 0;\r\n\r\n    event createUser(string message, uint256);\r\n\r\n    function register(string memory _name,string memory _role,uint256 _age,string memory _password,string memory _email) public {\r\n        uint256[] memory array1;\r\n        noOfUsers++;\r\n        users[noOfUsers].id=noOfUsers;\r\n        users[noOfUsers].name=_name;\r\n        users[noOfUsers].role=_role;\r\n        users[noOfUsers].age=_age;\r\n        users[noOfUsers].password=_password;\r\n        users[noOfUsers].email=_email;\r\n        users[noOfUsers].createdCases=array1;\r\n        users[noOfUsers].onChainCases=array1;\r\n        users[noOfUsers].ownershipCases=array1;\r\n        emit createUser(\"User Created\", noOfUsers);\r\n    }\r\n\r\n    function login(uint256 _id,string memory _email,string memory _password) public view returns (string memory) {\r\n        if (_id > 0 && users[_id].id == _id) {\r\n            if (bytes(_email).length != bytes(users[_id].email).length) {\r\n                return (\"Invalid Email\");\r\n            }\r\n\r\n            if (uint(keccak256(abi.encodePacked(_email))) != uint(keccak256(abi.encodePacked(users[_id].email)))) {\r\n                return (\"Invalid Email\");\r\n            }\r\n\r\n            if (bytes(_password).length != bytes(users[_id].password).length) {\r\n                return (\"Invalid Password\");\r\n            }\r\n\r\n            if (uint(keccak256(abi.encodePacked(_password))) != uint(keccak256(abi.encodePacked(users[_id].password)))) {\r\n                return (\"Invalid Password\");\r\n            }\r\n\r\n            return (\"Logged in\");\r\n        } else {\r\n            return (\"Invalid ID\");\r\n        }\r\n    }\r\n\r\n    function getUserDetails(uint256 _id) public view returns (User memory) {\r\n        return (users[_id]);\r\n    }\r\n\r\n    // function readName(uint256 _id) public view returns (string memory) {\r\n    //     if (_id > 0 && users[_id].id == _id) {\r\n    //         return (users[_id].name);\r\n    //     } else {\r\n    //         return (\"null\");\r\n    //     }\r\n    // }\r\n\r\n    // function readJob(uint256 _id) public view returns (string memory) {\r\n    //     if (_id > 0 && users[_id].id == _id) {\r\n    //         return (users[_id].role);\r\n    //     } else {\r\n    //         return (\"null\");\r\n    //     }\r\n    // }\r\n\r\n    // function readAge(uint256 _id) public view returns (uint256) {\r\n    //     if (_id > 0 && users[_id].id == _id) {\r\n    //         return (users[_id].age);\r\n    //     } else {\r\n    //         // return (\"null\");\r\n    //         return (0);\r\n    //     }\r\n    // }\r\n\r\n    // function readEmail(uint256 _id) public view returns (string memory) {\r\n    //     if (_id > 0 && users[_id].id == _id) {\r\n    //         return (users[_id].email);\r\n    //     } else {\r\n    //         return (\"null\");\r\n    //     }\r\n    // }\r\n\r\n    event appendChain(string message);\r\n    function appendIntoChain(uint256 _senderId,uint256 _receiverId,uint256 _caseId) public {\r\n        if (_senderId > 0 && users[_senderId].id == _senderId) {\r\n            for (uint256 i = 0; i < users[_senderId].createdCases.length; i++) {\r\n                if (users[_senderId].createdCases[i] == _caseId) {\r\n                    if (_receiverId > 0 && users[_receiverId].id == _receiverId) {\r\n                        if (_caseId > 0) {\r\n                            users[_receiverId].onChainCases.push(_caseId);\r\n                            emit appendChain(\"You are in authenticated network\");\r\n                            return;\r\n                        } else {\r\n                            emit appendChain(\"Case ID is invalid\");\r\n                            return;\r\n                        }\r\n                    } else {\r\n                        emit appendChain(\"User ID is invalid\");\r\n                        return;\r\n                    }\r\n                }\r\n            }\r\n\r\n            for (uint256 i = 0;i < users[_senderId].ownershipCases.length;i++) {\r\n                if (users[_senderId].ownershipCases[i] == _caseId) {\r\n                    if (_receiverId > 0 && users[_receiverId].id == _receiverId) {\r\n                        if (_caseId > 0) {\r\n                            users[_receiverId].onChainCases.push(_caseId);\r\n                            return;\r\n                        } else {\r\n                            emit appendChain(\"Case ID is invalid\");\r\n                            return;\r\n                        }\r\n                    } else {\r\n                        emit appendChain(\"User ID is invalid\");\r\n                        return;\r\n                    }\r\n                }\r\n            }\r\n\r\n            emit appendChain(\"No ownership\");\r\n        } else {\r\n            emit appendChain(\"Owner ID is Invalid\");\r\n        }\r\n    }\r\n\r\n    event createCaseInfo(string message);\r\n\r\n    function createCase(uint256 _id, uint256 _caseId) public {\r\n        if (_id > 0 && users[_id].id == _id) {\r\n            if (_caseId > 0) {\r\n                users[_id].createdCases.push(_caseId);\r\n                users[_id].ownershipCases.push(_caseId);\r\n                users[_id].onChainCases.push(_caseId);\r\n                emit createCaseInfo(\"Case added to account\");\r\n                appendIntoChain(_id, _id, _caseId);\r\n            }\r\n        }\r\n    }\r\n\r\n    event transferOwnerShipInfo(string message);\r\n\r\n    function transferOwnerShip(uint256 _senderId,uint256 _receiverId,uint256 _caseId\r\n    ) public {\r\n        if (_senderId > 0 && users[_senderId].id == _senderId) {\r\n            for (uint256 i = 0;i < users[_senderId].ownershipCases.length;i++) {\r\n                if (users[_senderId].ownershipCases[i] == _caseId) {\r\n                    if (_receiverId > 0 && users[_receiverId].id == _receiverId) {\r\n                        if (_caseId > 0) {\r\n                            users[_receiverId].ownershipCases.push(_caseId);\r\n                            users[_senderId].ownershipCases[i] = users[_senderId].ownershipCases[users[_senderId].ownershipCases.length - 1];\r\n                            users[_senderId].ownershipCases.pop();\r\n                            emit transferOwnerShipInfo(\"OwnerShip Transferred\");\r\n                            return;\r\n                        } else {\r\n                            emit transferOwnerShipInfo(\"Case ID is invalid\");\r\n                            return;\r\n                        }\r\n                    } else {\r\n                        emit transferOwnerShipInfo(\"User ID is invalid\");\r\n                        return;\r\n                    }\r\n                }\r\n            }\r\n            emit transferOwnerShipInfo(\"No ownership\");\r\n        } else {\r\n            emit transferOwnerShipInfo(\"Owner ID is Invalid\");\r\n        }\r\n    }\r\n\r\n    // function updateName(uint256 _id, string memory _name) public {\r\n    //     users[_id - 1].name = _name;\r\n    // }\r\n\r\n    // function updateJob(uint256 _id, string memory _job) public {\r\n    //     users[_id - 1].role = _job;\r\n    // }\r\n\r\n    // function updateAge(uint256 _id, uint256 _age) public {\r\n    //     users[_id - 1].age = _age;\r\n    // }\r\n\r\n    // function updateEmail(uint256 _id, string memory _email) public {\r\n    //     users[_id - 1].name = _email;\r\n    // }\r\n\r\n    // function updateAllInfo(\r\n    //     uint256 _id,\r\n    //     string memory _name,\r\n    //     string memory _job,\r\n    //     uint256 _age,\r\n    //     string memory _email\r\n    // ) public {\r\n    //     users[_id - 1].name = _name;\r\n    //     users[_id - 1].role = _job;\r\n    //     users[_id - 1].age = _age;\r\n    //     users[_id - 1].email = _email;\r\n    // }\r\n\r\n    // function remove(uint256 _id) public {\r\n    //     delete users[_id - 1];\r\n    // }\r\n}",
  "sourcePath": "E:\\solidity\\Block-Chain-Mini-Project\\frontend\\contracts\\user.sol",
  "compiler": {
    "name": "solc",
    "version": "0.5.16+commit.9c3226ce.Emscripten.clang"
  },
  "schemaVersion": "3.4.11",
  "updatedAt": "2022-12-11T21:22:32.246Z",
  "networkType": "ethereum",
  "devdoc": {
    "methods": {}
  },
  "userdoc": {
    "methods": {}
  }
}