{
  "contractName": "userStorage",
  "abi": [
    {
      "constant": true,
      "inputs": [],
      "name": "nextId",
      "outputs": [
        {
          "internalType": "uint256",
          "name": "",
          "type": "uint256"
        }
      ],
      "payable": false,
      "stateMutability": "view",
      "type": "function"
    },
    {
      "constant": false,
      "inputs": [
        {
          "internalType": "string",
          "name": "_name",
          "type": "string"
        },
        {
          "internalType": "string",
          "name": "_job",
          "type": "string"
        },
        {
          "internalType": "uint256",
          "name": "_age",
          "type": "uint256"
        },
        {
          "internalType": "string",
          "name": "_password",
          "type": "string"
        }
      ],
      "name": "create",
      "outputs": [],
      "payable": false,
      "stateMutability": "nonpayable",
      "type": "function"
    },
    {
      "constant": true,
      "inputs": [
        {
          "internalType": "uint256",
          "name": "_id",
          "type": "uint256"
        }
      ],
      "name": "readName",
      "outputs": [
        {
          "internalType": "string",
          "name": "",
          "type": "string"
        }
      ],
      "payable": false,
      "stateMutability": "view",
      "type": "function"
    },
    {
      "constant": true,
      "inputs": [
        {
          "internalType": "uint256",
          "name": "_id",
          "type": "uint256"
        }
      ],
      "name": "readJob",
      "outputs": [
        {
          "internalType": "string",
          "name": "",
          "type": "string"
        }
      ],
      "payable": false,
      "stateMutability": "view",
      "type": "function"
    },
    {
      "constant": true,
      "inputs": [
        {
          "internalType": "uint256",
          "name": "_id",
          "type": "uint256"
        }
      ],
      "name": "readAge",
      "outputs": [
        {
          "internalType": "uint256",
          "name": "",
          "type": "uint256"
        }
      ],
      "payable": false,
      "stateMutability": "view",
      "type": "function"
    },
    {
      "constant": false,
      "inputs": [
        {
          "internalType": "uint256",
          "name": "_id",
          "type": "uint256"
        },
        {
          "internalType": "uint256",
          "name": "_caseId",
          "type": "uint256"
        }
      ],
      "name": "createCase",
      "outputs": [],
      "payable": false,
      "stateMutability": "nonpayable",
      "type": "function"
    },
    {
      "constant": false,
      "inputs": [
        {
          "internalType": "uint256",
          "name": "_ownerId",
          "type": "uint256"
        },
        {
          "internalType": "uint256",
          "name": "_userId",
          "type": "uint256"
        },
        {
          "internalType": "uint256",
          "name": "_caseId",
          "type": "uint256"
        }
      ],
      "name": "appendIntoChain",
      "outputs": [],
      "payable": false,
      "stateMutability": "nonpayable",
      "type": "function"
    },
    {
      "constant": false,
      "inputs": [
        {
          "internalType": "uint256",
          "name": "_id",
          "type": "uint256"
        },
        {
          "internalType": "string",
          "name": "_name",
          "type": "string"
        }
      ],
      "name": "updateName",
      "outputs": [],
      "payable": false,
      "stateMutability": "nonpayable",
      "type": "function"
    },
    {
      "constant": false,
      "inputs": [
        {
          "internalType": "uint256",
          "name": "_id",
          "type": "uint256"
        },
        {
          "internalType": "string",
          "name": "_job",
          "type": "string"
        }
      ],
      "name": "updateJob",
      "outputs": [],
      "payable": false,
      "stateMutability": "nonpayable",
      "type": "function"
    },
    {
      "constant": false,
      "inputs": [
        {
          "internalType": "uint256",
          "name": "_id",
          "type": "uint256"
        },
        {
          "internalType": "uint256",
          "name": "_age",
          "type": "uint256"
        }
      ],
      "name": "updateAge",
      "outputs": [],
      "payable": false,
      "stateMutability": "nonpayable",
      "type": "function"
    },
    {
      "constant": false,
      "inputs": [
        {
          "internalType": "uint256",
          "name": "_id",
          "type": "uint256"
        },
        {
          "internalType": "string",
          "name": "_name",
          "type": "string"
        },
        {
          "internalType": "string",
          "name": "_job",
          "type": "string"
        },
        {
          "internalType": "uint256",
          "name": "_age",
          "type": "uint256"
        }
      ],
      "name": "updateAllInfo",
      "outputs": [],
      "payable": false,
      "stateMutability": "nonpayable",
      "type": "function"
    },
    {
      "constant": false,
      "inputs": [
        {
          "internalType": "uint256",
          "name": "_id",
          "type": "uint256"
        }
      ],
      "name": "remove",
      "outputs": [],
      "payable": false,
      "stateMutability": "nonpayable",
      "type": "function"
    }
  ],
  "bytecode": "0x60806040526001805534801561001457600080fd5b50611078806100246000396000f3fe608060405234801561001057600080fd5b50600436106100b45760003560e01c8063819aa31111610071578063819aa3111461055b57806384fb60ff146105935780638ec30042146105d5578063a3416b671461067c578063ae1dfdf614610741578063c5ca3280146107e8576100b4565b80632da1d60a146100b95780634519035f146102ac5780634cc82215146102e457806353e76f2c1461031257806361b8ce8c146103d75780636797642e146103f5575b600080fd5b6102aa600480360360808110156100cf57600080fd5b81019080803590602001906401000000008111156100ec57600080fd5b8201836020820111156100fe57600080fd5b8035906020019184600183028401116401000000008311171561012057600080fd5b91908080601f016020809104026020016040519081016040528093929190818152602001838380828437600081840152601f19601f8201169050808301925050505050505091929192908035906020019064010000000081111561018357600080fd5b82018360208201111561019557600080fd5b803590602001918460018302840111640100000000831117156101b757600080fd5b91908080601f016020809104026020016040519081016040528093929190818152602001838380828437600081840152601f19601f820116905080830192505050505050509192919290803590602001909291908035906020019064010000000081111561022457600080fd5b82018360208201111561023657600080fd5b8035906020019184600183028401116401000000008311171561025857600080fd5b91908080601f016020809104026020016040519081016040528093929190818152602001838380828437600081840152601f19601f82011690508083019250505050505050919291929050505061082a565b005b6102e2600480360360408110156102c257600080fd5b810190808035906020019092919080359060200190929190505050610936565b005b610310600480360360208110156102fa57600080fd5b81019080803590602001909291905050506109b2565b005b6103d56004803603604081101561032857600080fd5b81019080803590602001909291908035906020019064010000000081111561034f57600080fd5b82018360208201111561036157600080fd5b8035906020019184600183028401116401000000008311171561038357600080fd5b91908080601f016020809104026020016040519081016040528093929190818152602001838380828437600081840152601f19601f820116905080830192505050505050509192919290505050610a2d565b005b6103df610a5e565b6040518082815260200191505060405180910390f35b6105596004803603608081101561040b57600080fd5b81019080803590602001909291908035906020019064010000000081111561043257600080fd5b82018360208201111561044457600080fd5b8035906020019184600183028401116401000000008311171561046657600080fd5b91908080601f016020809104026020016040519081016040528093929190818152602001838380828437600081840152601f19601f820116905080830192505050505050509192919290803590602001906401000000008111156104c957600080fd5b8201836020820111156104db57600080fd5b803590602001918460018302840111640100000000831117156104fd57600080fd5b91908080601f016020809104026020016040519081016040528093929190818152602001838380828437600081840152601f19601f82011690508083019250505050505050919291929080359060200190929190505050610a64565b005b6105916004803603604081101561057157600080fd5b810190808035906020019092919080359060200190929190505050610ae1565b005b6105d3600480360360608110156105a957600080fd5b81019080803590602001909291908035906020019092919080359060200190929190505050610b02565b005b610601600480360360208110156105eb57600080fd5b8101908080359060200190929190505050610bae565b6040518080602001828103825283818151815260200191508051906020019080838360005b83811015610641578082015181840152602081019050610626565b50505050905090810190601f16801561066e5780820380516001836020036101000a031916815260200191505b509250505060405180910390f35b61073f6004803603604081101561069257600080fd5b8101908080359060200190929190803590602001906401000000008111156106b957600080fd5b8201836020820111156106cb57600080fd5b803590602001918460018302840111640100000000831117156106ed57600080fd5b91908080601f016020809104026020016040519081016040528093929190818152602001838380828437600081840152601f19601f820116905080830192505050505050509192919290505050610ccc565b005b61076d6004803603602081101561075757600080fd5b8101908080359060200190929190505050610cfd565b6040518080602001828103825283818151815260200191508051906020019080838360005b838110156107ad578082015181840152602081019050610792565b50505050905090810190601f1680156107da5780820380516001836020036101000a031916815260200191505b509250505060405180910390f35b610814600480360360208110156107fe57600080fd5b8101908080359060200190929190505050610e1b565b6040518082815260200191505060405180910390f35b60606040518060e00160405280600154815260200186815260200185815260200184815260200183815260200182815260200182815250600080600154815260200190815260200160002060008201518160000155602082015181600101908051906020019061089b929190610e68565b5060408201518160020190805190602001906108b8929190610e68565b506060820151816003015560808201518160040190805190602001906108df929190610e68565b5060a08201518160050190805190602001906108fc929190610ee8565b5060c0820151816006019080519060200190610919929190610ee8565b509050506001600081548092919060010191905055505050505050565b60008211801561095a57508160008084815260200190815260200160002060000154145b156109ad5760008111156109a8576000808381526020019081526020016000206005018190806001815401808255809150509060018203906000526020600020016000909192909190915055505b6109ae565b5b5050565b6000806001830381526020019081526020016000206000808201600090556001820160006109e09190610f35565b6002820160006109f09190610f35565b6003820160009055600482016000610a089190610f35565b600582016000610a189190610f7d565b600682016000610a289190610f7d565b505050565b806000806001850381526020019081526020016000206001019080519060200190610a59929190610f9e565b505050565b60015481565b826000806001870381526020019081526020016000206001019080519060200190610a90929190610f9e565b50816000806001870381526020019081526020016000206002019080519060200190610abd929190610f9e565b50806000806001870381526020019081526020016000206003018190555050505050565b80600080600185038152602001908152602001600020600301819055505050565b600083118015610b2657508260008085815260200190815260200160002060000154145b15610ba857600082118015610b4f57508160008084815260200190815260200160002060000154145b15610ba2576000811115610b9d576000808381526020019081526020016000206006018190806001815401808255809150509060018203906000526020600020016000909192909190915055505b610ba3565b5b610ba9565b5b505050565b6060600082118015610bd457508160008084815260200190815260200160002060000154145b15610c8e576000808381526020019081526020016000206002018054600181600116156101000203166002900480601f016020809104026020016040519081016040528092919081815260200182805460018160011615610100020316600290048015610c825780601f10610c5757610100808354040283529160200191610c82565b820191906000526020600020905b815481529060010190602001808311610c6557829003601f168201915b50505050509050610cc7565b6040518060400160405280600481526020017f6e756c6c0000000000000000000000000000000000000000000000000000000081525090505b919050565b806000806001850381526020019081526020016000206002019080519060200190610cf8929190610f9e565b505050565b6060600082118015610d2357508160008084815260200190815260200160002060000154145b15610ddd576000808381526020019081526020016000206001018054600181600116156101000203166002900480601f016020809104026020016040519081016040528092919081815260200182805460018160011615610100020316600290048015610dd15780601f10610da657610100808354040283529160200191610dd1565b820191906000526020600020905b815481529060010190602001808311610db457829003601f168201915b50505050509050610e16565b6040518060400160405280600481526020017f6e756c6c0000000000000000000000000000000000000000000000000000000081525090505b919050565b60008082118015610e4057508160008084815260200190815260200160002060000154145b15610e6257600080838152602001908152602001600020600301549050610e63565b5b919050565b828054600181600116156101000203166002900490600052602060002090601f016020900481019282601f10610ea957805160ff1916838001178555610ed7565b82800160010185558215610ed7579182015b82811115610ed6578251825591602001919060010190610ebb565b5b509050610ee4919061101e565b5090565b828054828255906000526020600020908101928215610f24579160200282015b82811115610f23578251825591602001919060010190610f08565b5b509050610f31919061101e565b5090565b50805460018160011615610100020316600290046000825580601f10610f5b5750610f7a565b601f016020900490600052602060002090810190610f79919061101e565b5b50565b5080546000825590600052602060002090810190610f9b919061101e565b50565b828054600181600116156101000203166002900490600052602060002090601f016020900481019282601f10610fdf57805160ff191683800117855561100d565b8280016001018555821561100d579182015b8281111561100c578251825591602001919060010190610ff1565b5b50905061101a919061101e565b5090565b61104091905b8082111561103c576000816000905550600101611024565b5090565b9056fea265627a7a72315820871b50c35b76af8fce00356c6e3796c4ede380f4c2c3b1fdb9e7d71dee1dc9f864736f6c63430005100032",
  "source": "// SPDX-License-Identifier: UNLICENSED\r\npragma solidity >=0.4.21 <=0.9.0;\r\n\r\ncontract userStorage {\r\n    struct User {\r\n        uint id;\r\n        string name;\r\n        string job;\r\n        uint age;\r\n        string password;\r\n        uint [] createdCases;\r\n        uint [] onChainCases;\r\n    }\r\n\r\n    mapping(uint=>User) users;\r\n    uint public nextId = 1;\r\n\r\n\r\n\r\n    function create(string memory _name, string memory _job, uint _age,string memory _password) public {\r\n        uint [] memory array1;\r\n        users[nextId]=User(nextId, _name, _job, _age, _password,array1,array1);\r\n        nextId++;\r\n    }\r\n\r\n    function readName(uint _id) public view returns(string memory) {\r\n        if(_id>0 && users[_id].id==_id){\r\n            return(users[_id].name);\r\n        }\r\n        else{\r\n            return (\"null\");\r\n        }\r\n    }\r\n    \r\n    function readJob(uint _id) public view returns(string memory) {\r\n        if(_id>0 && users[_id].id==_id){\r\n            return(users[_id].job);\r\n        }\r\n        else{\r\n            return(\"null\");\r\n        }\r\n    }\r\n    \r\n    function readAge(uint _id) public view returns(uint) {\r\n        if(_id>0 && users[_id].id==_id){\r\n            return(users[_id].age);\r\n        }\r\n        else{\r\n            // return (\"null\");\r\n        }\r\n    }\r\n\r\n    function createCase(uint _id,uint _caseId) public{\r\n        if(_id>0 && users[_id].id==_id){\r\n            if(_caseId>0){\r\n                users[_id].createdCases.push(_caseId);\r\n            }\r\n        }\r\n        else{\r\n            // return (\"null\");\r\n        }\r\n    }\r\n\r\n    function appendIntoChain(uint _ownerId,uint _userId,uint _caseId) public{\r\n        if(_ownerId>0 && users[_ownerId].id==_ownerId){\r\n            \r\n            if(_userId>0 && users[_userId].id==_userId){\r\n                if(_caseId>0){\r\n                    users[_userId].onChainCases.push(_caseId);\r\n                }\r\n            }\r\n            else{\r\n                // return(\"User ID is invalid\");\r\n            }\r\n        }\r\n        else{\r\n            // return (\"Owner ID is Invalid\");\r\n        }\r\n    }\r\n\r\n    function updateName(uint _id, string memory _name) public {\r\n        users[_id - 1].name = _name;\r\n    }\r\n\r\n    function updateJob(uint _id, string memory _job) public {\r\n        users[_id - 1].job = _job;\r\n    }\r\n\r\n    function updateAge(uint _id, uint _age) public {\r\n        users[_id - 1].age = _age;\r\n    }\r\n\r\n    function updateAllInfo(uint _id, string memory _name, string memory _job, uint _age) public {\r\n        users[_id - 1].name = _name;\r\n        users[_id - 1].job = _job;\r\n        users[_id - 1].age = _age;\r\n    }\r\n\r\n    function remove(uint _id) public {\r\n        delete users[_id - 1];\r\n    }\r\n}",
  "sourcePath": "E:\\solidity\\Block-Chain-Mini-Project\\frontend\\contracts\\user.sol",
  "compiler": {
    "name": "solc",
    "version": "0.5.16+commit.9c3226ce.Emscripten.clang"
  },
  "schemaVersion": "3.4.11",
  "updatedAt": "2022-12-10T10:11:56.057Z",
  "devdoc": {
    "methods": {}
  },
  "userdoc": {
    "methods": {}
  }
}