{
	"data": {
		"bytecode": {
			"linkReferences": {},
			"object": "6080604052600060015534801561001557600080fd5b50611e58806100256000396000f3fe608060405234801561001057600080fd5b506004361061007d5760003560e01c80638499cfe31161005b5780638499cfe3146100ec57806384fb60ff14610108578063af03b01014610124578063ca8dedc0146101405761007d565b806301934a83146100825780631c1a9f7b146100a05780634519035f146100d0575b600080fd5b61008a610170565b60405161009791906119b9565b60405180910390f35b6100ba60048036038101906100b59190611374565b610176565b6040516100c79190611997565b60405180910390f35b6100ea60048036038101906100e5919061142c565b610507565b005b61010660048036038101906101019190611289565b6105bb565b005b610122600480360381019061011d919061146c565b610784565b005b61013e6004803603810190610139919061146c565b610b0c565b005b61015a600480360381019061015591906113a1565b610e00565b6040516101679190611887565b60405180910390f35b60015481565b61017e6110c8565b60008083815260200190815260200160002060405180610120016040529081600082015481526020016001820180546101b690611b30565b80601f01602080910402602001604051908101604052809291908181526020018280546101e290611b30565b801561022f5780601f106102045761010080835404028352916020019161022f565b820191906000526020600020905b81548152906001019060200180831161021257829003601f168201915b5050505050815260200160028201805461024890611b30565b80601f016020809104026020016040519081016040528092919081815260200182805461027490611b30565b80156102c15780601f10610296576101008083540402835291602001916102c1565b820191906000526020600020905b8154815290600101906020018083116102a457829003601f168201915b50505050508152602001600382015481526020016004820180546102e490611b30565b80601f016020809104026020016040519081016040528092919081815260200182805461031090611b30565b801561035d5780601f106103325761010080835404028352916020019161035d565b820191906000526020600020905b81548152906001019060200180831161034057829003601f168201915b5050505050815260200160058201805461037690611b30565b80601f01602080910402602001604051908101604052809291908181526020018280546103a290611b30565b80156103ef5780601f106103c4576101008083540402835291602001916103ef565b820191906000526020600020905b8154815290600101906020018083116103d257829003601f168201915b505050505081526020016006820180548060200260200160405190810160405280929190818152602001828054801561044757602002820191906000526020600020905b815481526020019060010190808311610433575b505050505081526020016007820180548060200260200160405190810160405280929190818152602001828054801561049f57602002820191906000526020600020905b81548152602001906001019080831161048b575b50505050508152602001600882018054806020026020016040519081016040528092919081815260200182805480156104f757602002820191906000526020600020905b8154815260200190600101908083116104e3575b5050505050815250509050919050565b60008211801561052b57508160008084815260200190815260200160002060000154145b156105b75760008111156105b6576000808381526020019081526020016000206006018190806001815401808255809150506001900390600052602060002001600090919091909150557f9b77c208fa507cff82a07f7c237730f3daad62f1596d2f1e4674ea8b4cb656a36040516105a290611937565b60405180910390a16105b5828383610784565b5b5b5050565b6060600160008154809291906105d090611b93565b9190505550600154600080600154815260200190815260200160002060000181905550856000806001548152602001908152602001600020600101908051906020019061061e929190611114565b50846000806001548152602001908152602001600020600201908051906020019061064a929190611114565b50836000806001548152602001908152602001600020600301819055508260008060015481526020019081526020016000206004019080519060200190610692929190611114565b5081600080600154815260200190815260200160002060050190805190602001906106be929190611114565b5080600080600154815260200190815260200160002060060190805190602001906106ea92919061119a565b50806000806001548152602001908152602001600020600701908051906020019061071692919061119a565b50806000806001548152602001908152602001600020600801908051906020019061074292919061119a565b507f121ef243ddb4d5428c076edd3c3ebfa0fe0e7810b2408f5245dd5d8ffa1e5c786001546040516107749190611909565b60405180910390a1505050505050565b6000831180156107a857508260008085815260200190815260200160002060000154145b15610ad05760005b6000808581526020019081526020016000206006018054905081101561093b578160008086815260200190815260200160002060060182815481106107f8576107f7611c69565b5b906000526020600020015414156109285760008311801561082d57508260008085815260200190815260200160002060000154145b156108ed5760008211156108b2576000808481526020019081526020016000206007018290806001815401808255809150506001900390600052602060002001600090919091909150557f6fc5745462ab3310444243f731f292d9c48421c43cd802237361ee418fb713a26040516108a4906118a9565b60405180910390a150610b07565b7f6fc5745462ab3310444243f731f292d9c48421c43cd802237361ee418fb713a26040516108df906118e9565b60405180910390a150610b07565b7f6fc5745462ab3310444243f731f292d9c48421c43cd802237361ee418fb713a260405161091a90611957565b60405180910390a150610b07565b808061093390611b93565b9150506107b0565b5060005b60008085815260200190815260200160002060080180549050811015610a955781600080868152602001908152602001600020600801828154811061098757610986611c69565b5b90600052602060002001541415610a82576000831180156109bc57508260008085815260200190815260200160002060000154145b15610a47576000821115610a0c5760008084815260200190815260200160002060070182908060018154018082558091505060019003906000526020600020016000909190919091505550610b07565b7f6fc5745462ab3310444243f731f292d9c48421c43cd802237361ee418fb713a2604051610a39906118e9565b60405180910390a150610b07565b7f6fc5745462ab3310444243f731f292d9c48421c43cd802237361ee418fb713a2604051610a7490611957565b60405180910390a150610b07565b8080610a8d90611b93565b91505061093f565b507f6fc5745462ab3310444243f731f292d9c48421c43cd802237361ee418fb713a2604051610ac3906118c9565b60405180910390a1610b06565b7f6fc5745462ab3310444243f731f292d9c48421c43cd802237361ee418fb713a2604051610afd90611977565b60405180910390a15b5b505050565b600083118015610b3057508260008085815260200190815260200160002060000154145b15610dc45760005b60008085815260200190815260200160002060080180549050811015610d8957816000808681526020019081526020016000206008018281548110610b8057610b7f611c69565b5b90600052602060002001541415610d7657600083118015610bb557508260008085815260200190815260200160002060000154145b15610d3b576000821115610d0057600080848152602001908152602001600020600801829080600181540180825580915050600190039060005260206000200160009091909190915055600080858152602001908152602001600020600801600160008087815260200190815260200160002060080180549050610c399190611ab0565b81548110610c4a57610c49611c69565b5b90600052602060002001546000808681526020019081526020016000206008018281548110610c7c57610c7b611c69565b5b9060005260206000200181905550600080858152602001908152602001600020600801805480610caf57610cae611c3a565b5b600190038181906000526020600020016000905590557f6fc5745462ab3310444243f731f292d9c48421c43cd802237361ee418fb713a2604051610cf2906118a9565b60405180910390a150610dfb565b7f6fc5745462ab3310444243f731f292d9c48421c43cd802237361ee418fb713a2604051610d2d906118e9565b60405180910390a150610dfb565b7f6fc5745462ab3310444243f731f292d9c48421c43cd802237361ee418fb713a2604051610d6890611957565b60405180910390a150610dfb565b8080610d8190611b93565b915050610b38565b507f6fc5745462ab3310444243f731f292d9c48421c43cd802237361ee418fb713a2604051610db7906118c9565b60405180910390a1610dfa565b7f6fc5745462ab3310444243f731f292d9c48421c43cd802237361ee418fb713a2604051610df190611977565b60405180910390a15b5b505050565b6060600084118015610e2657508360008086815260200190815260200160002060000154145b15611088576000808581526020019081526020016000206005018054610e4b90611b30565b9050835114610e91576040518060400160405280600d81526020017f496e76616c696420456d61696c0000000000000000000000000000000000000081525090506110c1565b600080858152602001908152602001600020600501604051602001610eb69190611870565b6040516020818303038152906040528051906020012060001c83604051602001610ee09190611859565b6040516020818303038152906040528051906020012060001c14610f3b576040518060400160405280600d81526020017f496e76616c696420456d61696c0000000000000000000000000000000000000081525090506110c1565b6000808581526020019081526020016000206004018054610f5b90611b30565b9050825114610fa1576040518060400160405280601081526020017f496e76616c69642050617373776f72640000000000000000000000000000000081525090506110c1565b600080858152602001908152602001600020600401604051602001610fc69190611870565b6040516020818303038152906040528051906020012060001c82604051602001610ff09190611859565b6040516020818303038152906040528051906020012060001c1461104b576040518060400160405280601081526020017f496e76616c69642050617373776f72640000000000000000000000000000000081525090506110c1565b6040518060400160405280600981526020017f4c6f6767656420696e000000000000000000000000000000000000000000000081525090506110c1565b6040518060400160405280600a81526020017f496e76616c69642049440000000000000000000000000000000000000000000081525090505b9392505050565b6040518061012001604052806000815260200160608152602001606081526020016000815260200160608152602001606081526020016060815260200160608152602001606081525090565b82805461112090611b30565b90600052602060002090601f0160209004810192826111425760008555611189565b82601f1061115b57805160ff1916838001178555611189565b82800160010185558215611189579182015b8281111561118857825182559160200191906001019061116d565b5b50905061119691906111e7565b5090565b8280548282559060005260206000209081019282156111d6579160200282015b828111156111d55782518255916020019190600101906111ba565b5b5090506111e391906111e7565b5090565b5b808211156112005760008160009055506001016111e8565b5090565b6000611217611212846119f9565b6119d4565b90508281526020810184848401111561123357611232611ccc565b5b61123e848285611aee565b509392505050565b600082601f83011261125b5761125a611cc7565b5b813561126b848260208601611204565b91505092915050565b60008135905061128381611e0b565b92915050565b600080600080600060a086880312156112a5576112a4611cd6565b5b600086013567ffffffffffffffff8111156112c3576112c2611cd1565b5b6112cf88828901611246565b955050602086013567ffffffffffffffff8111156112f0576112ef611cd1565b5b6112fc88828901611246565b945050604061130d88828901611274565b935050606086013567ffffffffffffffff81111561132e5761132d611cd1565b5b61133a88828901611246565b925050608086013567ffffffffffffffff81111561135b5761135a611cd1565b5b61136788828901611246565b9150509295509295909350565b60006020828403121561138a57611389611cd6565b5b600061139884828501611274565b91505092915050565b6000806000606084860312156113ba576113b9611cd6565b5b60006113c886828701611274565b935050602084013567ffffffffffffffff8111156113e9576113e8611cd1565b5b6113f586828701611246565b925050604084013567ffffffffffffffff81111561141657611415611cd1565b5b61142286828701611246565b9150509250925092565b6000806040838503121561144357611442611cd6565b5b600061145185828601611274565b925050602061146285828601611274565b9150509250929050565b60008060006060848603121561148557611484611cd6565b5b600061149386828701611274565b93505060206114a486828701611274565b92505060406114b586828701611274565b9150509250925092565b60006114cb838361183b565b60208301905092915050565b60006114e282611a4f565b6114ec8185611a72565b93506114f783611a2a565b8060005b8381101561152857815161150f88826114bf565b975061151a83611a65565b9250506001810190506114fb565b5085935050505092915050565b600061154082611a5a565b61154a8185611a83565b935061155a818560208601611afd565b61156381611cdb565b840191505092915050565b600061157982611a5a565b6115838185611a94565b9350611593818560208601611afd565b61159c81611cdb565b840191505092915050565b60006115b282611a5a565b6115bc8185611aa5565b93506115cc818560208601611afd565b80840191505092915050565b600081546115e581611b30565b6115ef8186611aa5565b9450600182166000811461160a576001811461161b5761164e565b60ff1983168652818601935061164e565b61162485611a3a565b60005b8381101561164657815481890152600182019150602081019050611627565b838801955050505b50505092915050565b6000611664602083611a94565b915061166f82611cec565b602082019050919050565b6000611687600c83611a94565b915061169282611d15565b602082019050919050565b60006116aa601283611a94565b91506116b582611d3e565b602082019050919050565b60006116cd600c83611a94565b91506116d882611d67565b602082019050919050565b60006116f0601583611a94565b91506116fb82611d90565b602082019050919050565b6000611713601283611a94565b915061171e82611db9565b602082019050919050565b6000611736601383611a94565b915061174182611de2565b602082019050919050565b600061012083016000830151611765600086018261183b565b506020830151848203602086015261177d8282611535565b915050604083015184820360408601526117978282611535565b91505060608301516117ac606086018261183b565b50608083015184820360808601526117c48282611535565b91505060a083015184820360a08601526117de8282611535565b91505060c083015184820360c08601526117f882826114d7565b91505060e083015184820360e086015261181282826114d7565b91505061010083015184820361010086015261182e82826114d7565b9150508091505092915050565b61184481611ae4565b82525050565b61185381611ae4565b82525050565b600061186582846115a7565b915081905092915050565b600061187c82846115d8565b915081905092915050565b600060208201905081810360008301526118a1818461156e565b905092915050565b600060208201905081810360008301526118c281611657565b9050919050565b600060208201905081810360008301526118e28161167a565b9050919050565b600060208201905081810360008301526119028161169d565b9050919050565b60006040820190508181036000830152611922816116c0565b9050611931602083018461184a565b92915050565b60006020820190508181036000830152611950816116e3565b9050919050565b6000602082019050818103600083015261197081611706565b9050919050565b6000602082019050818103600083015261199081611729565b9050919050565b600060208201905081810360008301526119b1818461174c565b905092915050565b60006020820190506119ce600083018461184a565b92915050565b60006119de6119ef565b90506119ea8282611b62565b919050565b6000604051905090565b600067ffffffffffffffff821115611a1457611a13611c98565b5b611a1d82611cdb565b9050602081019050919050565b6000819050602082019050919050565b60008190508160005260206000209050919050565b600081519050919050565b600081519050919050565b6000602082019050919050565b600082825260208201905092915050565b600082825260208201905092915050565b600082825260208201905092915050565b600081905092915050565b6000611abb82611ae4565b9150611ac683611ae4565b925082821015611ad957611ad8611bdc565b5b828203905092915050565b6000819050919050565b82818337600083830152505050565b60005b83811015611b1b578082015181840152602081019050611b00565b83811115611b2a576000848401525b50505050565b60006002820490506001821680611b4857607f821691505b60208210811415611b5c57611b5b611c0b565b5b50919050565b611b6b82611cdb565b810181811067ffffffffffffffff82111715611b8a57611b89611c98565b5b80604052505050565b6000611b9e82611ae4565b91507fffffffffffffffffffffffffffffffffffffffffffffffffffffffffffffffff821415611bd157611bd0611bdc565b5b600182019050919050565b7f4e487b7100000000000000000000000000000000000000000000000000000000600052601160045260246000fd5b7f4e487b7100000000000000000000000000000000000000000000000000000000600052602260045260246000fd5b7f4e487b7100000000000000000000000000000000000000000000000000000000600052603160045260246000fd5b7f4e487b7100000000000000000000000000000000000000000000000000000000600052603260045260246000fd5b7f4e487b7100000000000000000000000000000000000000000000000000000000600052604160045260246000fd5b600080fd5b600080fd5b600080fd5b600080fd5b6000601f19601f8301169050919050565b7f596f752061726520696e2061757468656e74696361746564206e6574776f726b600082015250565b7f4e6f206f776e6572736869700000000000000000000000000000000000000000600082015250565b7f4361736520494420697320696e76616c69640000000000000000000000000000600082015250565b7f5573657220437265617465640000000000000000000000000000000000000000600082015250565b7f4361736520616464656420746f206163636f756e740000000000000000000000600082015250565b7f5573657220494420697320696e76616c69640000000000000000000000000000600082015250565b7f4f776e657220494420697320496e76616c696400000000000000000000000000600082015250565b611e1481611ae4565b8114611e1f57600080fd5b5056fea26469706673582212205e8ded7c906e94f22cf1d96ad1678375596b4ac2674b2ace6de863f332df0e2e64736f6c63430008060033",
			"opcodes": "PUSH1 0x80 PUSH1 0x40 MSTORE PUSH1 0x0 PUSH1 0x1 SSTORE CALLVALUE DUP1 ISZERO PUSH2 0x15 JUMPI PUSH1 0x0 DUP1 REVERT JUMPDEST POP PUSH2 0x1E58 DUP1 PUSH2 0x25 PUSH1 0x0 CODECOPY PUSH1 0x0 RETURN INVALID PUSH1 0x80 PUSH1 0x40 MSTORE CALLVALUE DUP1 ISZERO PUSH2 0x10 JUMPI PUSH1 0x0 DUP1 REVERT JUMPDEST POP PUSH1 0x4 CALLDATASIZE LT PUSH2 0x7D JUMPI PUSH1 0x0 CALLDATALOAD PUSH1 0xE0 SHR DUP1 PUSH4 0x8499CFE3 GT PUSH2 0x5B JUMPI DUP1 PUSH4 0x8499CFE3 EQ PUSH2 0xEC JUMPI DUP1 PUSH4 0x84FB60FF EQ PUSH2 0x108 JUMPI DUP1 PUSH4 0xAF03B010 EQ PUSH2 0x124 JUMPI DUP1 PUSH4 0xCA8DEDC0 EQ PUSH2 0x140 JUMPI PUSH2 0x7D JUMP JUMPDEST DUP1 PUSH4 0x1934A83 EQ PUSH2 0x82 JUMPI DUP1 PUSH4 0x1C1A9F7B EQ PUSH2 0xA0 JUMPI DUP1 PUSH4 0x4519035F EQ PUSH2 0xD0 JUMPI JUMPDEST PUSH1 0x0 DUP1 REVERT JUMPDEST PUSH2 0x8A PUSH2 0x170 JUMP JUMPDEST PUSH1 0x40 MLOAD PUSH2 0x97 SWAP2 SWAP1 PUSH2 0x19B9 JUMP JUMPDEST PUSH1 0x40 MLOAD DUP1 SWAP2 SUB SWAP1 RETURN JUMPDEST PUSH2 0xBA PUSH1 0x4 DUP1 CALLDATASIZE SUB DUP2 ADD SWAP1 PUSH2 0xB5 SWAP2 SWAP1 PUSH2 0x1374 JUMP JUMPDEST PUSH2 0x176 JUMP JUMPDEST PUSH1 0x40 MLOAD PUSH2 0xC7 SWAP2 SWAP1 PUSH2 0x1997 JUMP JUMPDEST PUSH1 0x40 MLOAD DUP1 SWAP2 SUB SWAP1 RETURN JUMPDEST PUSH2 0xEA PUSH1 0x4 DUP1 CALLDATASIZE SUB DUP2 ADD SWAP1 PUSH2 0xE5 SWAP2 SWAP1 PUSH2 0x142C JUMP JUMPDEST PUSH2 0x507 JUMP JUMPDEST STOP JUMPDEST PUSH2 0x106 PUSH1 0x4 DUP1 CALLDATASIZE SUB DUP2 ADD SWAP1 PUSH2 0x101 SWAP2 SWAP1 PUSH2 0x1289 JUMP JUMPDEST PUSH2 0x5BB JUMP JUMPDEST STOP JUMPDEST PUSH2 0x122 PUSH1 0x4 DUP1 CALLDATASIZE SUB DUP2 ADD SWAP1 PUSH2 0x11D SWAP2 SWAP1 PUSH2 0x146C JUMP JUMPDEST PUSH2 0x784 JUMP JUMPDEST STOP JUMPDEST PUSH2 0x13E PUSH1 0x4 DUP1 CALLDATASIZE SUB DUP2 ADD SWAP1 PUSH2 0x139 SWAP2 SWAP1 PUSH2 0x146C JUMP JUMPDEST PUSH2 0xB0C JUMP JUMPDEST STOP JUMPDEST PUSH2 0x15A PUSH1 0x4 DUP1 CALLDATASIZE SUB DUP2 ADD SWAP1 PUSH2 0x155 SWAP2 SWAP1 PUSH2 0x13A1 JUMP JUMPDEST PUSH2 0xE00 JUMP JUMPDEST PUSH1 0x40 MLOAD PUSH2 0x167 SWAP2 SWAP1 PUSH2 0x1887 JUMP JUMPDEST PUSH1 0x40 MLOAD DUP1 SWAP2 SUB SWAP1 RETURN JUMPDEST PUSH1 0x1 SLOAD DUP2 JUMP JUMPDEST PUSH2 0x17E PUSH2 0x10C8 JUMP JUMPDEST PUSH1 0x0 DUP1 DUP4 DUP2 MSTORE PUSH1 0x20 ADD SWAP1 DUP2 MSTORE PUSH1 0x20 ADD PUSH1 0x0 KECCAK256 PUSH1 0x40 MLOAD DUP1 PUSH2 0x120 ADD PUSH1 0x40 MSTORE SWAP1 DUP2 PUSH1 0x0 DUP3 ADD SLOAD DUP2 MSTORE PUSH1 0x20 ADD PUSH1 0x1 DUP3 ADD DUP1 SLOAD PUSH2 0x1B6 SWAP1 PUSH2 0x1B30 JUMP JUMPDEST DUP1 PUSH1 0x1F ADD PUSH1 0x20 DUP1 SWAP2 DIV MUL PUSH1 0x20 ADD PUSH1 0x40 MLOAD SWAP1 DUP2 ADD PUSH1 0x40 MSTORE DUP1 SWAP3 SWAP2 SWAP1 DUP2 DUP2 MSTORE PUSH1 0x20 ADD DUP3 DUP1 SLOAD PUSH2 0x1E2 SWAP1 PUSH2 0x1B30 JUMP JUMPDEST DUP1 ISZERO PUSH2 0x22F JUMPI DUP1 PUSH1 0x1F LT PUSH2 0x204 JUMPI PUSH2 0x100 DUP1 DUP4 SLOAD DIV MUL DUP4 MSTORE SWAP2 PUSH1 0x20 ADD SWAP2 PUSH2 0x22F JUMP JUMPDEST DUP3 ADD SWAP2 SWAP1 PUSH1 0x0 MSTORE PUSH1 0x20 PUSH1 0x0 KECCAK256 SWAP1 JUMPDEST DUP2 SLOAD DUP2 MSTORE SWAP1 PUSH1 0x1 ADD SWAP1 PUSH1 0x20 ADD DUP1 DUP4 GT PUSH2 0x212 JUMPI DUP3 SWAP1 SUB PUSH1 0x1F AND DUP3 ADD SWAP2 JUMPDEST POP POP POP POP POP DUP2 MSTORE PUSH1 0x20 ADD PUSH1 0x2 DUP3 ADD DUP1 SLOAD PUSH2 0x248 SWAP1 PUSH2 0x1B30 JUMP JUMPDEST DUP1 PUSH1 0x1F ADD PUSH1 0x20 DUP1 SWAP2 DIV MUL PUSH1 0x20 ADD PUSH1 0x40 MLOAD SWAP1 DUP2 ADD PUSH1 0x40 MSTORE DUP1 SWAP3 SWAP2 SWAP1 DUP2 DUP2 MSTORE PUSH1 0x20 ADD DUP3 DUP1 SLOAD PUSH2 0x274 SWAP1 PUSH2 0x1B30 JUMP JUMPDEST DUP1 ISZERO PUSH2 0x2C1 JUMPI DUP1 PUSH1 0x1F LT PUSH2 0x296 JUMPI PUSH2 0x100 DUP1 DUP4 SLOAD DIV MUL DUP4 MSTORE SWAP2 PUSH1 0x20 ADD SWAP2 PUSH2 0x2C1 JUMP JUMPDEST DUP3 ADD SWAP2 SWAP1 PUSH1 0x0 MSTORE PUSH1 0x20 PUSH1 0x0 KECCAK256 SWAP1 JUMPDEST DUP2 SLOAD DUP2 MSTORE SWAP1 PUSH1 0x1 ADD SWAP1 PUSH1 0x20 ADD DUP1 DUP4 GT PUSH2 0x2A4 JUMPI DUP3 SWAP1 SUB PUSH1 0x1F AND DUP3 ADD SWAP2 JUMPDEST POP POP POP POP POP DUP2 MSTORE PUSH1 0x20 ADD PUSH1 0x3 DUP3 ADD SLOAD DUP2 MSTORE PUSH1 0x20 ADD PUSH1 0x4 DUP3 ADD DUP1 SLOAD PUSH2 0x2E4 SWAP1 PUSH2 0x1B30 JUMP JUMPDEST DUP1 PUSH1 0x1F ADD PUSH1 0x20 DUP1 SWAP2 DIV MUL PUSH1 0x20 ADD PUSH1 0x40 MLOAD SWAP1 DUP2 ADD PUSH1 0x40 MSTORE DUP1 SWAP3 SWAP2 SWAP1 DUP2 DUP2 MSTORE PUSH1 0x20 ADD DUP3 DUP1 SLOAD PUSH2 0x310 SWAP1 PUSH2 0x1B30 JUMP JUMPDEST DUP1 ISZERO PUSH2 0x35D JUMPI DUP1 PUSH1 0x1F LT PUSH2 0x332 JUMPI PUSH2 0x100 DUP1 DUP4 SLOAD DIV MUL DUP4 MSTORE SWAP2 PUSH1 0x20 ADD SWAP2 PUSH2 0x35D JUMP JUMPDEST DUP3 ADD SWAP2 SWAP1 PUSH1 0x0 MSTORE PUSH1 0x20 PUSH1 0x0 KECCAK256 SWAP1 JUMPDEST DUP2 SLOAD DUP2 MSTORE SWAP1 PUSH1 0x1 ADD SWAP1 PUSH1 0x20 ADD DUP1 DUP4 GT PUSH2 0x340 JUMPI DUP3 SWAP1 SUB PUSH1 0x1F AND DUP3 ADD SWAP2 JUMPDEST POP POP POP POP POP DUP2 MSTORE PUSH1 0x20 ADD PUSH1 0x5 DUP3 ADD DUP1 SLOAD PUSH2 0x376 SWAP1 PUSH2 0x1B30 JUMP JUMPDEST DUP1 PUSH1 0x1F ADD PUSH1 0x20 DUP1 SWAP2 DIV MUL PUSH1 0x20 ADD PUSH1 0x40 MLOAD SWAP1 DUP2 ADD PUSH1 0x40 MSTORE DUP1 SWAP3 SWAP2 SWAP1 DUP2 DUP2 MSTORE PUSH1 0x20 ADD DUP3 DUP1 SLOAD PUSH2 0x3A2 SWAP1 PUSH2 0x1B30 JUMP JUMPDEST DUP1 ISZERO PUSH2 0x3EF JUMPI DUP1 PUSH1 0x1F LT PUSH2 0x3C4 JUMPI PUSH2 0x100 DUP1 DUP4 SLOAD DIV MUL DUP4 MSTORE SWAP2 PUSH1 0x20 ADD SWAP2 PUSH2 0x3EF JUMP JUMPDEST DUP3 ADD SWAP2 SWAP1 PUSH1 0x0 MSTORE PUSH1 0x20 PUSH1 0x0 KECCAK256 SWAP1 JUMPDEST DUP2 SLOAD DUP2 MSTORE SWAP1 PUSH1 0x1 ADD SWAP1 PUSH1 0x20 ADD DUP1 DUP4 GT PUSH2 0x3D2 JUMPI DUP3 SWAP1 SUB PUSH1 0x1F AND DUP3 ADD SWAP2 JUMPDEST POP POP POP POP POP DUP2 MSTORE PUSH1 0x20 ADD PUSH1 0x6 DUP3 ADD DUP1 SLOAD DUP1 PUSH1 0x20 MUL PUSH1 0x20 ADD PUSH1 0x40 MLOAD SWAP1 DUP2 ADD PUSH1 0x40 MSTORE DUP1 SWAP3 SWAP2 SWAP1 DUP2 DUP2 MSTORE PUSH1 0x20 ADD DUP3 DUP1 SLOAD DUP1 ISZERO PUSH2 0x447 JUMPI PUSH1 0x20 MUL DUP3 ADD SWAP2 SWAP1 PUSH1 0x0 MSTORE PUSH1 0x20 PUSH1 0x0 KECCAK256 SWAP1 JUMPDEST DUP2 SLOAD DUP2 MSTORE PUSH1 0x20 ADD SWAP1 PUSH1 0x1 ADD SWAP1 DUP1 DUP4 GT PUSH2 0x433 JUMPI JUMPDEST POP POP POP POP POP DUP2 MSTORE PUSH1 0x20 ADD PUSH1 0x7 DUP3 ADD DUP1 SLOAD DUP1 PUSH1 0x20 MUL PUSH1 0x20 ADD PUSH1 0x40 MLOAD SWAP1 DUP2 ADD PUSH1 0x40 MSTORE DUP1 SWAP3 SWAP2 SWAP1 DUP2 DUP2 MSTORE PUSH1 0x20 ADD DUP3 DUP1 SLOAD DUP1 ISZERO PUSH2 0x49F JUMPI PUSH1 0x20 MUL DUP3 ADD SWAP2 SWAP1 PUSH1 0x0 MSTORE PUSH1 0x20 PUSH1 0x0 KECCAK256 SWAP1 JUMPDEST DUP2 SLOAD DUP2 MSTORE PUSH1 0x20 ADD SWAP1 PUSH1 0x1 ADD SWAP1 DUP1 DUP4 GT PUSH2 0x48B JUMPI JUMPDEST POP POP POP POP POP DUP2 MSTORE PUSH1 0x20 ADD PUSH1 0x8 DUP3 ADD DUP1 SLOAD DUP1 PUSH1 0x20 MUL PUSH1 0x20 ADD PUSH1 0x40 MLOAD SWAP1 DUP2 ADD PUSH1 0x40 MSTORE DUP1 SWAP3 SWAP2 SWAP1 DUP2 DUP2 MSTORE PUSH1 0x20 ADD DUP3 DUP1 SLOAD DUP1 ISZERO PUSH2 0x4F7 JUMPI PUSH1 0x20 MUL DUP3 ADD SWAP2 SWAP1 PUSH1 0x0 MSTORE PUSH1 0x20 PUSH1 0x0 KECCAK256 SWAP1 JUMPDEST DUP2 SLOAD DUP2 MSTORE PUSH1 0x20 ADD SWAP1 PUSH1 0x1 ADD SWAP1 DUP1 DUP4 GT PUSH2 0x4E3 JUMPI JUMPDEST POP POP POP POP POP DUP2 MSTORE POP POP SWAP1 POP SWAP2 SWAP1 POP JUMP JUMPDEST PUSH1 0x0 DUP3 GT DUP1 ISZERO PUSH2 0x52B JUMPI POP DUP2 PUSH1 0x0 DUP1 DUP5 DUP2 MSTORE PUSH1 0x20 ADD SWAP1 DUP2 MSTORE PUSH1 0x20 ADD PUSH1 0x0 KECCAK256 PUSH1 0x0 ADD SLOAD EQ JUMPDEST ISZERO PUSH2 0x5B7 JUMPI PUSH1 0x0 DUP2 GT ISZERO PUSH2 0x5B6 JUMPI PUSH1 0x0 DUP1 DUP4 DUP2 MSTORE PUSH1 0x20 ADD SWAP1 DUP2 MSTORE PUSH1 0x20 ADD PUSH1 0x0 KECCAK256 PUSH1 0x6 ADD DUP2 SWAP1 DUP1 PUSH1 0x1 DUP2 SLOAD ADD DUP1 DUP3 SSTORE DUP1 SWAP2 POP POP PUSH1 0x1 SWAP1 SUB SWAP1 PUSH1 0x0 MSTORE PUSH1 0x20 PUSH1 0x0 KECCAK256 ADD PUSH1 0x0 SWAP1 SWAP2 SWAP1 SWAP2 SWAP1 SWAP2 POP SSTORE PUSH32 0x9B77C208FA507CFF82A07F7C237730F3DAAD62F1596D2F1E4674EA8B4CB656A3 PUSH1 0x40 MLOAD PUSH2 0x5A2 SWAP1 PUSH2 0x1937 JUMP JUMPDEST PUSH1 0x40 MLOAD DUP1 SWAP2 SUB SWAP1 LOG1 PUSH2 0x5B5 DUP3 DUP4 DUP4 PUSH2 0x784 JUMP JUMPDEST JUMPDEST JUMPDEST POP POP JUMP JUMPDEST PUSH1 0x60 PUSH1 0x1 PUSH1 0x0 DUP2 SLOAD DUP1 SWAP3 SWAP2 SWAP1 PUSH2 0x5D0 SWAP1 PUSH2 0x1B93 JUMP JUMPDEST SWAP2 SWAP1 POP SSTORE POP PUSH1 0x1 SLOAD PUSH1 0x0 DUP1 PUSH1 0x1 SLOAD DUP2 MSTORE PUSH1 0x20 ADD SWAP1 DUP2 MSTORE PUSH1 0x20 ADD PUSH1 0x0 KECCAK256 PUSH1 0x0 ADD DUP2 SWAP1 SSTORE POP DUP6 PUSH1 0x0 DUP1 PUSH1 0x1 SLOAD DUP2 MSTORE PUSH1 0x20 ADD SWAP1 DUP2 MSTORE PUSH1 0x20 ADD PUSH1 0x0 KECCAK256 PUSH1 0x1 ADD SWAP1 DUP1 MLOAD SWAP1 PUSH1 0x20 ADD SWAP1 PUSH2 0x61E SWAP3 SWAP2 SWAP1 PUSH2 0x1114 JUMP JUMPDEST POP DUP5 PUSH1 0x0 DUP1 PUSH1 0x1 SLOAD DUP2 MSTORE PUSH1 0x20 ADD SWAP1 DUP2 MSTORE PUSH1 0x20 ADD PUSH1 0x0 KECCAK256 PUSH1 0x2 ADD SWAP1 DUP1 MLOAD SWAP1 PUSH1 0x20 ADD SWAP1 PUSH2 0x64A SWAP3 SWAP2 SWAP1 PUSH2 0x1114 JUMP JUMPDEST POP DUP4 PUSH1 0x0 DUP1 PUSH1 0x1 SLOAD DUP2 MSTORE PUSH1 0x20 ADD SWAP1 DUP2 MSTORE PUSH1 0x20 ADD PUSH1 0x0 KECCAK256 PUSH1 0x3 ADD DUP2 SWAP1 SSTORE POP DUP3 PUSH1 0x0 DUP1 PUSH1 0x1 SLOAD DUP2 MSTORE PUSH1 0x20 ADD SWAP1 DUP2 MSTORE PUSH1 0x20 ADD PUSH1 0x0 KECCAK256 PUSH1 0x4 ADD SWAP1 DUP1 MLOAD SWAP1 PUSH1 0x20 ADD SWAP1 PUSH2 0x692 SWAP3 SWAP2 SWAP1 PUSH2 0x1114 JUMP JUMPDEST POP DUP2 PUSH1 0x0 DUP1 PUSH1 0x1 SLOAD DUP2 MSTORE PUSH1 0x20 ADD SWAP1 DUP2 MSTORE PUSH1 0x20 ADD PUSH1 0x0 KECCAK256 PUSH1 0x5 ADD SWAP1 DUP1 MLOAD SWAP1 PUSH1 0x20 ADD SWAP1 PUSH2 0x6BE SWAP3 SWAP2 SWAP1 PUSH2 0x1114 JUMP JUMPDEST POP DUP1 PUSH1 0x0 DUP1 PUSH1 0x1 SLOAD DUP2 MSTORE PUSH1 0x20 ADD SWAP1 DUP2 MSTORE PUSH1 0x20 ADD PUSH1 0x0 KECCAK256 PUSH1 0x6 ADD SWAP1 DUP1 MLOAD SWAP1 PUSH1 0x20 ADD SWAP1 PUSH2 0x6EA SWAP3 SWAP2 SWAP1 PUSH2 0x119A JUMP JUMPDEST POP DUP1 PUSH1 0x0 DUP1 PUSH1 0x1 SLOAD DUP2 MSTORE PUSH1 0x20 ADD SWAP1 DUP2 MSTORE PUSH1 0x20 ADD PUSH1 0x0 KECCAK256 PUSH1 0x7 ADD SWAP1 DUP1 MLOAD SWAP1 PUSH1 0x20 ADD SWAP1 PUSH2 0x716 SWAP3 SWAP2 SWAP1 PUSH2 0x119A JUMP JUMPDEST POP DUP1 PUSH1 0x0 DUP1 PUSH1 0x1 SLOAD DUP2 MSTORE PUSH1 0x20 ADD SWAP1 DUP2 MSTORE PUSH1 0x20 ADD PUSH1 0x0 KECCAK256 PUSH1 0x8 ADD SWAP1 DUP1 MLOAD SWAP1 PUSH1 0x20 ADD SWAP1 PUSH2 0x742 SWAP3 SWAP2 SWAP1 PUSH2 0x119A JUMP JUMPDEST POP PUSH32 0x121EF243DDB4D5428C076EDD3C3EBFA0FE0E7810B2408F5245DD5D8FFA1E5C78 PUSH1 0x1 SLOAD PUSH1 0x40 MLOAD PUSH2 0x774 SWAP2 SWAP1 PUSH2 0x1909 JUMP JUMPDEST PUSH1 0x40 MLOAD DUP1 SWAP2 SUB SWAP1 LOG1 POP POP POP POP POP POP JUMP JUMPDEST PUSH1 0x0 DUP4 GT DUP1 ISZERO PUSH2 0x7A8 JUMPI POP DUP3 PUSH1 0x0 DUP1 DUP6 DUP2 MSTORE PUSH1 0x20 ADD SWAP1 DUP2 MSTORE PUSH1 0x20 ADD PUSH1 0x0 KECCAK256 PUSH1 0x0 ADD SLOAD EQ JUMPDEST ISZERO PUSH2 0xAD0 JUMPI PUSH1 0x0 JUMPDEST PUSH1 0x0 DUP1 DUP6 DUP2 MSTORE PUSH1 0x20 ADD SWAP1 DUP2 MSTORE PUSH1 0x20 ADD PUSH1 0x0 KECCAK256 PUSH1 0x6 ADD DUP1 SLOAD SWAP1 POP DUP2 LT ISZERO PUSH2 0x93B JUMPI DUP2 PUSH1 0x0 DUP1 DUP7 DUP2 MSTORE PUSH1 0x20 ADD SWAP1 DUP2 MSTORE PUSH1 0x20 ADD PUSH1 0x0 KECCAK256 PUSH1 0x6 ADD DUP3 DUP2 SLOAD DUP2 LT PUSH2 0x7F8 JUMPI PUSH2 0x7F7 PUSH2 0x1C69 JUMP JUMPDEST JUMPDEST SWAP1 PUSH1 0x0 MSTORE PUSH1 0x20 PUSH1 0x0 KECCAK256 ADD SLOAD EQ ISZERO PUSH2 0x928 JUMPI PUSH1 0x0 DUP4 GT DUP1 ISZERO PUSH2 0x82D JUMPI POP DUP3 PUSH1 0x0 DUP1 DUP6 DUP2 MSTORE PUSH1 0x20 ADD SWAP1 DUP2 MSTORE PUSH1 0x20 ADD PUSH1 0x0 KECCAK256 PUSH1 0x0 ADD SLOAD EQ JUMPDEST ISZERO PUSH2 0x8ED JUMPI PUSH1 0x0 DUP3 GT ISZERO PUSH2 0x8B2 JUMPI PUSH1 0x0 DUP1 DUP5 DUP2 MSTORE PUSH1 0x20 ADD SWAP1 DUP2 MSTORE PUSH1 0x20 ADD PUSH1 0x0 KECCAK256 PUSH1 0x7 ADD DUP3 SWAP1 DUP1 PUSH1 0x1 DUP2 SLOAD ADD DUP1 DUP3 SSTORE DUP1 SWAP2 POP POP PUSH1 0x1 SWAP1 SUB SWAP1 PUSH1 0x0 MSTORE PUSH1 0x20 PUSH1 0x0 KECCAK256 ADD PUSH1 0x0 SWAP1 SWAP2 SWAP1 SWAP2 SWAP1 SWAP2 POP SSTORE PUSH32 0x6FC5745462AB3310444243F731F292D9C48421C43CD802237361EE418FB713A2 PUSH1 0x40 MLOAD PUSH2 0x8A4 SWAP1 PUSH2 0x18A9 JUMP JUMPDEST PUSH1 0x40 MLOAD DUP1 SWAP2 SUB SWAP1 LOG1 POP PUSH2 0xB07 JUMP JUMPDEST PUSH32 0x6FC5745462AB3310444243F731F292D9C48421C43CD802237361EE418FB713A2 PUSH1 0x40 MLOAD PUSH2 0x8DF SWAP1 PUSH2 0x18E9 JUMP JUMPDEST PUSH1 0x40 MLOAD DUP1 SWAP2 SUB SWAP1 LOG1 POP PUSH2 0xB07 JUMP JUMPDEST PUSH32 0x6FC5745462AB3310444243F731F292D9C48421C43CD802237361EE418FB713A2 PUSH1 0x40 MLOAD PUSH2 0x91A SWAP1 PUSH2 0x1957 JUMP JUMPDEST PUSH1 0x40 MLOAD DUP1 SWAP2 SUB SWAP1 LOG1 POP PUSH2 0xB07 JUMP JUMPDEST DUP1 DUP1 PUSH2 0x933 SWAP1 PUSH2 0x1B93 JUMP JUMPDEST SWAP2 POP POP PUSH2 0x7B0 JUMP JUMPDEST POP PUSH1 0x0 JUMPDEST PUSH1 0x0 DUP1 DUP6 DUP2 MSTORE PUSH1 0x20 ADD SWAP1 DUP2 MSTORE PUSH1 0x20 ADD PUSH1 0x0 KECCAK256 PUSH1 0x8 ADD DUP1 SLOAD SWAP1 POP DUP2 LT ISZERO PUSH2 0xA95 JUMPI DUP2 PUSH1 0x0 DUP1 DUP7 DUP2 MSTORE PUSH1 0x20 ADD SWAP1 DUP2 MSTORE PUSH1 0x20 ADD PUSH1 0x0 KECCAK256 PUSH1 0x8 ADD DUP3 DUP2 SLOAD DUP2 LT PUSH2 0x987 JUMPI PUSH2 0x986 PUSH2 0x1C69 JUMP JUMPDEST JUMPDEST SWAP1 PUSH1 0x0 MSTORE PUSH1 0x20 PUSH1 0x0 KECCAK256 ADD SLOAD EQ ISZERO PUSH2 0xA82 JUMPI PUSH1 0x0 DUP4 GT DUP1 ISZERO PUSH2 0x9BC JUMPI POP DUP3 PUSH1 0x0 DUP1 DUP6 DUP2 MSTORE PUSH1 0x20 ADD SWAP1 DUP2 MSTORE PUSH1 0x20 ADD PUSH1 0x0 KECCAK256 PUSH1 0x0 ADD SLOAD EQ JUMPDEST ISZERO PUSH2 0xA47 JUMPI PUSH1 0x0 DUP3 GT ISZERO PUSH2 0xA0C JUMPI PUSH1 0x0 DUP1 DUP5 DUP2 MSTORE PUSH1 0x20 ADD SWAP1 DUP2 MSTORE PUSH1 0x20 ADD PUSH1 0x0 KECCAK256 PUSH1 0x7 ADD DUP3 SWAP1 DUP1 PUSH1 0x1 DUP2 SLOAD ADD DUP1 DUP3 SSTORE DUP1 SWAP2 POP POP PUSH1 0x1 SWAP1 SUB SWAP1 PUSH1 0x0 MSTORE PUSH1 0x20 PUSH1 0x0 KECCAK256 ADD PUSH1 0x0 SWAP1 SWAP2 SWAP1 SWAP2 SWAP1 SWAP2 POP SSTORE POP PUSH2 0xB07 JUMP JUMPDEST PUSH32 0x6FC5745462AB3310444243F731F292D9C48421C43CD802237361EE418FB713A2 PUSH1 0x40 MLOAD PUSH2 0xA39 SWAP1 PUSH2 0x18E9 JUMP JUMPDEST PUSH1 0x40 MLOAD DUP1 SWAP2 SUB SWAP1 LOG1 POP PUSH2 0xB07 JUMP JUMPDEST PUSH32 0x6FC5745462AB3310444243F731F292D9C48421C43CD802237361EE418FB713A2 PUSH1 0x40 MLOAD PUSH2 0xA74 SWAP1 PUSH2 0x1957 JUMP JUMPDEST PUSH1 0x40 MLOAD DUP1 SWAP2 SUB SWAP1 LOG1 POP PUSH2 0xB07 JUMP JUMPDEST DUP1 DUP1 PUSH2 0xA8D SWAP1 PUSH2 0x1B93 JUMP JUMPDEST SWAP2 POP POP PUSH2 0x93F JUMP JUMPDEST POP PUSH32 0x6FC5745462AB3310444243F731F292D9C48421C43CD802237361EE418FB713A2 PUSH1 0x40 MLOAD PUSH2 0xAC3 SWAP1 PUSH2 0x18C9 JUMP JUMPDEST PUSH1 0x40 MLOAD DUP1 SWAP2 SUB SWAP1 LOG1 PUSH2 0xB06 JUMP JUMPDEST PUSH32 0x6FC5745462AB3310444243F731F292D9C48421C43CD802237361EE418FB713A2 PUSH1 0x40 MLOAD PUSH2 0xAFD SWAP1 PUSH2 0x1977 JUMP JUMPDEST PUSH1 0x40 MLOAD DUP1 SWAP2 SUB SWAP1 LOG1 JUMPDEST JUMPDEST POP POP POP JUMP JUMPDEST PUSH1 0x0 DUP4 GT DUP1 ISZERO PUSH2 0xB30 JUMPI POP DUP3 PUSH1 0x0 DUP1 DUP6 DUP2 MSTORE PUSH1 0x20 ADD SWAP1 DUP2 MSTORE PUSH1 0x20 ADD PUSH1 0x0 KECCAK256 PUSH1 0x0 ADD SLOAD EQ JUMPDEST ISZERO PUSH2 0xDC4 JUMPI PUSH1 0x0 JUMPDEST PUSH1 0x0 DUP1 DUP6 DUP2 MSTORE PUSH1 0x20 ADD SWAP1 DUP2 MSTORE PUSH1 0x20 ADD PUSH1 0x0 KECCAK256 PUSH1 0x8 ADD DUP1 SLOAD SWAP1 POP DUP2 LT ISZERO PUSH2 0xD89 JUMPI DUP2 PUSH1 0x0 DUP1 DUP7 DUP2 MSTORE PUSH1 0x20 ADD SWAP1 DUP2 MSTORE PUSH1 0x20 ADD PUSH1 0x0 KECCAK256 PUSH1 0x8 ADD DUP3 DUP2 SLOAD DUP2 LT PUSH2 0xB80 JUMPI PUSH2 0xB7F PUSH2 0x1C69 JUMP JUMPDEST JUMPDEST SWAP1 PUSH1 0x0 MSTORE PUSH1 0x20 PUSH1 0x0 KECCAK256 ADD SLOAD EQ ISZERO PUSH2 0xD76 JUMPI PUSH1 0x0 DUP4 GT DUP1 ISZERO PUSH2 0xBB5 JUMPI POP DUP3 PUSH1 0x0 DUP1 DUP6 DUP2 MSTORE PUSH1 0x20 ADD SWAP1 DUP2 MSTORE PUSH1 0x20 ADD PUSH1 0x0 KECCAK256 PUSH1 0x0 ADD SLOAD EQ JUMPDEST ISZERO PUSH2 0xD3B JUMPI PUSH1 0x0 DUP3 GT ISZERO PUSH2 0xD00 JUMPI PUSH1 0x0 DUP1 DUP5 DUP2 MSTORE PUSH1 0x20 ADD SWAP1 DUP2 MSTORE PUSH1 0x20 ADD PUSH1 0x0 KECCAK256 PUSH1 0x8 ADD DUP3 SWAP1 DUP1 PUSH1 0x1 DUP2 SLOAD ADD DUP1 DUP3 SSTORE DUP1 SWAP2 POP POP PUSH1 0x1 SWAP1 SUB SWAP1 PUSH1 0x0 MSTORE PUSH1 0x20 PUSH1 0x0 KECCAK256 ADD PUSH1 0x0 SWAP1 SWAP2 SWAP1 SWAP2 SWAP1 SWAP2 POP SSTORE PUSH1 0x0 DUP1 DUP6 DUP2 MSTORE PUSH1 0x20 ADD SWAP1 DUP2 MSTORE PUSH1 0x20 ADD PUSH1 0x0 KECCAK256 PUSH1 0x8 ADD PUSH1 0x1 PUSH1 0x0 DUP1 DUP8 DUP2 MSTORE PUSH1 0x20 ADD SWAP1 DUP2 MSTORE PUSH1 0x20 ADD PUSH1 0x0 KECCAK256 PUSH1 0x8 ADD DUP1 SLOAD SWAP1 POP PUSH2 0xC39 SWAP2 SWAP1 PUSH2 0x1AB0 JUMP JUMPDEST DUP2 SLOAD DUP2 LT PUSH2 0xC4A JUMPI PUSH2 0xC49 PUSH2 0x1C69 JUMP JUMPDEST JUMPDEST SWAP1 PUSH1 0x0 MSTORE PUSH1 0x20 PUSH1 0x0 KECCAK256 ADD SLOAD PUSH1 0x0 DUP1 DUP7 DUP2 MSTORE PUSH1 0x20 ADD SWAP1 DUP2 MSTORE PUSH1 0x20 ADD PUSH1 0x0 KECCAK256 PUSH1 0x8 ADD DUP3 DUP2 SLOAD DUP2 LT PUSH2 0xC7C JUMPI PUSH2 0xC7B PUSH2 0x1C69 JUMP JUMPDEST JUMPDEST SWAP1 PUSH1 0x0 MSTORE PUSH1 0x20 PUSH1 0x0 KECCAK256 ADD DUP2 SWAP1 SSTORE POP PUSH1 0x0 DUP1 DUP6 DUP2 MSTORE PUSH1 0x20 ADD SWAP1 DUP2 MSTORE PUSH1 0x20 ADD PUSH1 0x0 KECCAK256 PUSH1 0x8 ADD DUP1 SLOAD DUP1 PUSH2 0xCAF JUMPI PUSH2 0xCAE PUSH2 0x1C3A JUMP JUMPDEST JUMPDEST PUSH1 0x1 SWAP1 SUB DUP2 DUP2 SWAP1 PUSH1 0x0 MSTORE PUSH1 0x20 PUSH1 0x0 KECCAK256 ADD PUSH1 0x0 SWAP1 SSTORE SWAP1 SSTORE PUSH32 0x6FC5745462AB3310444243F731F292D9C48421C43CD802237361EE418FB713A2 PUSH1 0x40 MLOAD PUSH2 0xCF2 SWAP1 PUSH2 0x18A9 JUMP JUMPDEST PUSH1 0x40 MLOAD DUP1 SWAP2 SUB SWAP1 LOG1 POP PUSH2 0xDFB JUMP JUMPDEST PUSH32 0x6FC5745462AB3310444243F731F292D9C48421C43CD802237361EE418FB713A2 PUSH1 0x40 MLOAD PUSH2 0xD2D SWAP1 PUSH2 0x18E9 JUMP JUMPDEST PUSH1 0x40 MLOAD DUP1 SWAP2 SUB SWAP1 LOG1 POP PUSH2 0xDFB JUMP JUMPDEST PUSH32 0x6FC5745462AB3310444243F731F292D9C48421C43CD802237361EE418FB713A2 PUSH1 0x40 MLOAD PUSH2 0xD68 SWAP1 PUSH2 0x1957 JUMP JUMPDEST PUSH1 0x40 MLOAD DUP1 SWAP2 SUB SWAP1 LOG1 POP PUSH2 0xDFB JUMP JUMPDEST DUP1 DUP1 PUSH2 0xD81 SWAP1 PUSH2 0x1B93 JUMP JUMPDEST SWAP2 POP POP PUSH2 0xB38 JUMP JUMPDEST POP PUSH32 0x6FC5745462AB3310444243F731F292D9C48421C43CD802237361EE418FB713A2 PUSH1 0x40 MLOAD PUSH2 0xDB7 SWAP1 PUSH2 0x18C9 JUMP JUMPDEST PUSH1 0x40 MLOAD DUP1 SWAP2 SUB SWAP1 LOG1 PUSH2 0xDFA JUMP JUMPDEST PUSH32 0x6FC5745462AB3310444243F731F292D9C48421C43CD802237361EE418FB713A2 PUSH1 0x40 MLOAD PUSH2 0xDF1 SWAP1 PUSH2 0x1977 JUMP JUMPDEST PUSH1 0x40 MLOAD DUP1 SWAP2 SUB SWAP1 LOG1 JUMPDEST JUMPDEST POP POP POP JUMP JUMPDEST PUSH1 0x60 PUSH1 0x0 DUP5 GT DUP1 ISZERO PUSH2 0xE26 JUMPI POP DUP4 PUSH1 0x0 DUP1 DUP7 DUP2 MSTORE PUSH1 0x20 ADD SWAP1 DUP2 MSTORE PUSH1 0x20 ADD PUSH1 0x0 KECCAK256 PUSH1 0x0 ADD SLOAD EQ JUMPDEST ISZERO PUSH2 0x1088 JUMPI PUSH1 0x0 DUP1 DUP6 DUP2 MSTORE PUSH1 0x20 ADD SWAP1 DUP2 MSTORE PUSH1 0x20 ADD PUSH1 0x0 KECCAK256 PUSH1 0x5 ADD DUP1 SLOAD PUSH2 0xE4B SWAP1 PUSH2 0x1B30 JUMP JUMPDEST SWAP1 POP DUP4 MLOAD EQ PUSH2 0xE91 JUMPI PUSH1 0x40 MLOAD DUP1 PUSH1 0x40 ADD PUSH1 0x40 MSTORE DUP1 PUSH1 0xD DUP2 MSTORE PUSH1 0x20 ADD PUSH32 0x496E76616C696420456D61696C00000000000000000000000000000000000000 DUP2 MSTORE POP SWAP1 POP PUSH2 0x10C1 JUMP JUMPDEST PUSH1 0x0 DUP1 DUP6 DUP2 MSTORE PUSH1 0x20 ADD SWAP1 DUP2 MSTORE PUSH1 0x20 ADD PUSH1 0x0 KECCAK256 PUSH1 0x5 ADD PUSH1 0x40 MLOAD PUSH1 0x20 ADD PUSH2 0xEB6 SWAP2 SWAP1 PUSH2 0x1870 JUMP JUMPDEST PUSH1 0x40 MLOAD PUSH1 0x20 DUP2 DUP4 SUB SUB DUP2 MSTORE SWAP1 PUSH1 0x40 MSTORE DUP1 MLOAD SWAP1 PUSH1 0x20 ADD KECCAK256 PUSH1 0x0 SHR DUP4 PUSH1 0x40 MLOAD PUSH1 0x20 ADD PUSH2 0xEE0 SWAP2 SWAP1 PUSH2 0x1859 JUMP JUMPDEST PUSH1 0x40 MLOAD PUSH1 0x20 DUP2 DUP4 SUB SUB DUP2 MSTORE SWAP1 PUSH1 0x40 MSTORE DUP1 MLOAD SWAP1 PUSH1 0x20 ADD KECCAK256 PUSH1 0x0 SHR EQ PUSH2 0xF3B JUMPI PUSH1 0x40 MLOAD DUP1 PUSH1 0x40 ADD PUSH1 0x40 MSTORE DUP1 PUSH1 0xD DUP2 MSTORE PUSH1 0x20 ADD PUSH32 0x496E76616C696420456D61696C00000000000000000000000000000000000000 DUP2 MSTORE POP SWAP1 POP PUSH2 0x10C1 JUMP JUMPDEST PUSH1 0x0 DUP1 DUP6 DUP2 MSTORE PUSH1 0x20 ADD SWAP1 DUP2 MSTORE PUSH1 0x20 ADD PUSH1 0x0 KECCAK256 PUSH1 0x4 ADD DUP1 SLOAD PUSH2 0xF5B SWAP1 PUSH2 0x1B30 JUMP JUMPDEST SWAP1 POP DUP3 MLOAD EQ PUSH2 0xFA1 JUMPI PUSH1 0x40 MLOAD DUP1 PUSH1 0x40 ADD PUSH1 0x40 MSTORE DUP1 PUSH1 0x10 DUP2 MSTORE PUSH1 0x20 ADD PUSH32 0x496E76616C69642050617373776F726400000000000000000000000000000000 DUP2 MSTORE POP SWAP1 POP PUSH2 0x10C1 JUMP JUMPDEST PUSH1 0x0 DUP1 DUP6 DUP2 MSTORE PUSH1 0x20 ADD SWAP1 DUP2 MSTORE PUSH1 0x20 ADD PUSH1 0x0 KECCAK256 PUSH1 0x4 ADD PUSH1 0x40 MLOAD PUSH1 0x20 ADD PUSH2 0xFC6 SWAP2 SWAP1 PUSH2 0x1870 JUMP JUMPDEST PUSH1 0x40 MLOAD PUSH1 0x20 DUP2 DUP4 SUB SUB DUP2 MSTORE SWAP1 PUSH1 0x40 MSTORE DUP1 MLOAD SWAP1 PUSH1 0x20 ADD KECCAK256 PUSH1 0x0 SHR DUP3 PUSH1 0x40 MLOAD PUSH1 0x20 ADD PUSH2 0xFF0 SWAP2 SWAP1 PUSH2 0x1859 JUMP JUMPDEST PUSH1 0x40 MLOAD PUSH1 0x20 DUP2 DUP4 SUB SUB DUP2 MSTORE SWAP1 PUSH1 0x40 MSTORE DUP1 MLOAD SWAP1 PUSH1 0x20 ADD KECCAK256 PUSH1 0x0 SHR EQ PUSH2 0x104B JUMPI PUSH1 0x40 MLOAD DUP1 PUSH1 0x40 ADD PUSH1 0x40 MSTORE DUP1 PUSH1 0x10 DUP2 MSTORE PUSH1 0x20 ADD PUSH32 0x496E76616C69642050617373776F726400000000000000000000000000000000 DUP2 MSTORE POP SWAP1 POP PUSH2 0x10C1 JUMP JUMPDEST PUSH1 0x40 MLOAD DUP1 PUSH1 0x40 ADD PUSH1 0x40 MSTORE DUP1 PUSH1 0x9 DUP2 MSTORE PUSH1 0x20 ADD PUSH32 0x4C6F6767656420696E0000000000000000000000000000000000000000000000 DUP2 MSTORE POP SWAP1 POP PUSH2 0x10C1 JUMP JUMPDEST PUSH1 0x40 MLOAD DUP1 PUSH1 0x40 ADD PUSH1 0x40 MSTORE DUP1 PUSH1 0xA DUP2 MSTORE PUSH1 0x20 ADD PUSH32 0x496E76616C696420494400000000000000000000000000000000000000000000 DUP2 MSTORE POP SWAP1 POP JUMPDEST SWAP4 SWAP3 POP POP POP JUMP JUMPDEST PUSH1 0x40 MLOAD DUP1 PUSH2 0x120 ADD PUSH1 0x40 MSTORE DUP1 PUSH1 0x0 DUP2 MSTORE PUSH1 0x20 ADD PUSH1 0x60 DUP2 MSTORE PUSH1 0x20 ADD PUSH1 0x60 DUP2 MSTORE PUSH1 0x20 ADD PUSH1 0x0 DUP2 MSTORE PUSH1 0x20 ADD PUSH1 0x60 DUP2 MSTORE PUSH1 0x20 ADD PUSH1 0x60 DUP2 MSTORE PUSH1 0x20 ADD PUSH1 0x60 DUP2 MSTORE PUSH1 0x20 ADD PUSH1 0x60 DUP2 MSTORE PUSH1 0x20 ADD PUSH1 0x60 DUP2 MSTORE POP SWAP1 JUMP JUMPDEST DUP3 DUP1 SLOAD PUSH2 0x1120 SWAP1 PUSH2 0x1B30 JUMP JUMPDEST SWAP1 PUSH1 0x0 MSTORE PUSH1 0x20 PUSH1 0x0 KECCAK256 SWAP1 PUSH1 0x1F ADD PUSH1 0x20 SWAP1 DIV DUP2 ADD SWAP3 DUP3 PUSH2 0x1142 JUMPI PUSH1 0x0 DUP6 SSTORE PUSH2 0x1189 JUMP JUMPDEST DUP3 PUSH1 0x1F LT PUSH2 0x115B JUMPI DUP1 MLOAD PUSH1 0xFF NOT AND DUP4 DUP1 ADD OR DUP6 SSTORE PUSH2 0x1189 JUMP JUMPDEST DUP3 DUP1 ADD PUSH1 0x1 ADD DUP6 SSTORE DUP3 ISZERO PUSH2 0x1189 JUMPI SWAP2 DUP3 ADD JUMPDEST DUP3 DUP2 GT ISZERO PUSH2 0x1188 JUMPI DUP3 MLOAD DUP3 SSTORE SWAP2 PUSH1 0x20 ADD SWAP2 SWAP1 PUSH1 0x1 ADD SWAP1 PUSH2 0x116D JUMP JUMPDEST JUMPDEST POP SWAP1 POP PUSH2 0x1196 SWAP2 SWAP1 PUSH2 0x11E7 JUMP JUMPDEST POP SWAP1 JUMP JUMPDEST DUP3 DUP1 SLOAD DUP3 DUP3 SSTORE SWAP1 PUSH1 0x0 MSTORE PUSH1 0x20 PUSH1 0x0 KECCAK256 SWAP1 DUP2 ADD SWAP3 DUP3 ISZERO PUSH2 0x11D6 JUMPI SWAP2 PUSH1 0x20 MUL DUP3 ADD JUMPDEST DUP3 DUP2 GT ISZERO PUSH2 0x11D5 JUMPI DUP3 MLOAD DUP3 SSTORE SWAP2 PUSH1 0x20 ADD SWAP2 SWAP1 PUSH1 0x1 ADD SWAP1 PUSH2 0x11BA JUMP JUMPDEST JUMPDEST POP SWAP1 POP PUSH2 0x11E3 SWAP2 SWAP1 PUSH2 0x11E7 JUMP JUMPDEST POP SWAP1 JUMP JUMPDEST JUMPDEST DUP1 DUP3 GT ISZERO PUSH2 0x1200 JUMPI PUSH1 0x0 DUP2 PUSH1 0x0 SWAP1 SSTORE POP PUSH1 0x1 ADD PUSH2 0x11E8 JUMP JUMPDEST POP SWAP1 JUMP JUMPDEST PUSH1 0x0 PUSH2 0x1217 PUSH2 0x1212 DUP5 PUSH2 0x19F9 JUMP JUMPDEST PUSH2 0x19D4 JUMP JUMPDEST SWAP1 POP DUP3 DUP2 MSTORE PUSH1 0x20 DUP2 ADD DUP5 DUP5 DUP5 ADD GT ISZERO PUSH2 0x1233 JUMPI PUSH2 0x1232 PUSH2 0x1CCC JUMP JUMPDEST JUMPDEST PUSH2 0x123E DUP5 DUP3 DUP6 PUSH2 0x1AEE JUMP JUMPDEST POP SWAP4 SWAP3 POP POP POP JUMP JUMPDEST PUSH1 0x0 DUP3 PUSH1 0x1F DUP4 ADD SLT PUSH2 0x125B JUMPI PUSH2 0x125A PUSH2 0x1CC7 JUMP JUMPDEST JUMPDEST DUP2 CALLDATALOAD PUSH2 0x126B DUP5 DUP3 PUSH1 0x20 DUP7 ADD PUSH2 0x1204 JUMP JUMPDEST SWAP2 POP POP SWAP3 SWAP2 POP POP JUMP JUMPDEST PUSH1 0x0 DUP2 CALLDATALOAD SWAP1 POP PUSH2 0x1283 DUP2 PUSH2 0x1E0B JUMP JUMPDEST SWAP3 SWAP2 POP POP JUMP JUMPDEST PUSH1 0x0 DUP1 PUSH1 0x0 DUP1 PUSH1 0x0 PUSH1 0xA0 DUP7 DUP9 SUB SLT ISZERO PUSH2 0x12A5 JUMPI PUSH2 0x12A4 PUSH2 0x1CD6 JUMP JUMPDEST JUMPDEST PUSH1 0x0 DUP7 ADD CALLDATALOAD PUSH8 0xFFFFFFFFFFFFFFFF DUP2 GT ISZERO PUSH2 0x12C3 JUMPI PUSH2 0x12C2 PUSH2 0x1CD1 JUMP JUMPDEST JUMPDEST PUSH2 0x12CF DUP9 DUP3 DUP10 ADD PUSH2 0x1246 JUMP JUMPDEST SWAP6 POP POP PUSH1 0x20 DUP7 ADD CALLDATALOAD PUSH8 0xFFFFFFFFFFFFFFFF DUP2 GT ISZERO PUSH2 0x12F0 JUMPI PUSH2 0x12EF PUSH2 0x1CD1 JUMP JUMPDEST JUMPDEST PUSH2 0x12FC DUP9 DUP3 DUP10 ADD PUSH2 0x1246 JUMP JUMPDEST SWAP5 POP POP PUSH1 0x40 PUSH2 0x130D DUP9 DUP3 DUP10 ADD PUSH2 0x1274 JUMP JUMPDEST SWAP4 POP POP PUSH1 0x60 DUP7 ADD CALLDATALOAD PUSH8 0xFFFFFFFFFFFFFFFF DUP2 GT ISZERO PUSH2 0x132E JUMPI PUSH2 0x132D PUSH2 0x1CD1 JUMP JUMPDEST JUMPDEST PUSH2 0x133A DUP9 DUP3 DUP10 ADD PUSH2 0x1246 JUMP JUMPDEST SWAP3 POP POP PUSH1 0x80 DUP7 ADD CALLDATALOAD PUSH8 0xFFFFFFFFFFFFFFFF DUP2 GT ISZERO PUSH2 0x135B JUMPI PUSH2 0x135A PUSH2 0x1CD1 JUMP JUMPDEST JUMPDEST PUSH2 0x1367 DUP9 DUP3 DUP10 ADD PUSH2 0x1246 JUMP JUMPDEST SWAP2 POP POP SWAP3 SWAP6 POP SWAP3 SWAP6 SWAP1 SWAP4 POP JUMP JUMPDEST PUSH1 0x0 PUSH1 0x20 DUP3 DUP5 SUB SLT ISZERO PUSH2 0x138A JUMPI PUSH2 0x1389 PUSH2 0x1CD6 JUMP JUMPDEST JUMPDEST PUSH1 0x0 PUSH2 0x1398 DUP5 DUP3 DUP6 ADD PUSH2 0x1274 JUMP JUMPDEST SWAP2 POP POP SWAP3 SWAP2 POP POP JUMP JUMPDEST PUSH1 0x0 DUP1 PUSH1 0x0 PUSH1 0x60 DUP5 DUP7 SUB SLT ISZERO PUSH2 0x13BA JUMPI PUSH2 0x13B9 PUSH2 0x1CD6 JUMP JUMPDEST JUMPDEST PUSH1 0x0 PUSH2 0x13C8 DUP7 DUP3 DUP8 ADD PUSH2 0x1274 JUMP JUMPDEST SWAP4 POP POP PUSH1 0x20 DUP5 ADD CALLDATALOAD PUSH8 0xFFFFFFFFFFFFFFFF DUP2 GT ISZERO PUSH2 0x13E9 JUMPI PUSH2 0x13E8 PUSH2 0x1CD1 JUMP JUMPDEST JUMPDEST PUSH2 0x13F5 DUP7 DUP3 DUP8 ADD PUSH2 0x1246 JUMP JUMPDEST SWAP3 POP POP PUSH1 0x40 DUP5 ADD CALLDATALOAD PUSH8 0xFFFFFFFFFFFFFFFF DUP2 GT ISZERO PUSH2 0x1416 JUMPI PUSH2 0x1415 PUSH2 0x1CD1 JUMP JUMPDEST JUMPDEST PUSH2 0x1422 DUP7 DUP3 DUP8 ADD PUSH2 0x1246 JUMP JUMPDEST SWAP2 POP POP SWAP3 POP SWAP3 POP SWAP3 JUMP JUMPDEST PUSH1 0x0 DUP1 PUSH1 0x40 DUP4 DUP6 SUB SLT ISZERO PUSH2 0x1443 JUMPI PUSH2 0x1442 PUSH2 0x1CD6 JUMP JUMPDEST JUMPDEST PUSH1 0x0 PUSH2 0x1451 DUP6 DUP3 DUP7 ADD PUSH2 0x1274 JUMP JUMPDEST SWAP3 POP POP PUSH1 0x20 PUSH2 0x1462 DUP6 DUP3 DUP7 ADD PUSH2 0x1274 JUMP JUMPDEST SWAP2 POP POP SWAP3 POP SWAP3 SWAP1 POP JUMP JUMPDEST PUSH1 0x0 DUP1 PUSH1 0x0 PUSH1 0x60 DUP5 DUP7 SUB SLT ISZERO PUSH2 0x1485 JUMPI PUSH2 0x1484 PUSH2 0x1CD6 JUMP JUMPDEST JUMPDEST PUSH1 0x0 PUSH2 0x1493 DUP7 DUP3 DUP8 ADD PUSH2 0x1274 JUMP JUMPDEST SWAP4 POP POP PUSH1 0x20 PUSH2 0x14A4 DUP7 DUP3 DUP8 ADD PUSH2 0x1274 JUMP JUMPDEST SWAP3 POP POP PUSH1 0x40 PUSH2 0x14B5 DUP7 DUP3 DUP8 ADD PUSH2 0x1274 JUMP JUMPDEST SWAP2 POP POP SWAP3 POP SWAP3 POP SWAP3 JUMP JUMPDEST PUSH1 0x0 PUSH2 0x14CB DUP4 DUP4 PUSH2 0x183B JUMP JUMPDEST PUSH1 0x20 DUP4 ADD SWAP1 POP SWAP3 SWAP2 POP POP JUMP JUMPDEST PUSH1 0x0 PUSH2 0x14E2 DUP3 PUSH2 0x1A4F JUMP JUMPDEST PUSH2 0x14EC DUP2 DUP6 PUSH2 0x1A72 JUMP JUMPDEST SWAP4 POP PUSH2 0x14F7 DUP4 PUSH2 0x1A2A JUMP JUMPDEST DUP1 PUSH1 0x0 JUMPDEST DUP4 DUP2 LT ISZERO PUSH2 0x1528 JUMPI DUP2 MLOAD PUSH2 0x150F DUP9 DUP3 PUSH2 0x14BF JUMP JUMPDEST SWAP8 POP PUSH2 0x151A DUP4 PUSH2 0x1A65 JUMP JUMPDEST SWAP3 POP POP PUSH1 0x1 DUP2 ADD SWAP1 POP PUSH2 0x14FB JUMP JUMPDEST POP DUP6 SWAP4 POP POP POP POP SWAP3 SWAP2 POP POP JUMP JUMPDEST PUSH1 0x0 PUSH2 0x1540 DUP3 PUSH2 0x1A5A JUMP JUMPDEST PUSH2 0x154A DUP2 DUP6 PUSH2 0x1A83 JUMP JUMPDEST SWAP4 POP PUSH2 0x155A DUP2 DUP6 PUSH1 0x20 DUP7 ADD PUSH2 0x1AFD JUMP JUMPDEST PUSH2 0x1563 DUP2 PUSH2 0x1CDB JUMP JUMPDEST DUP5 ADD SWAP2 POP POP SWAP3 SWAP2 POP POP JUMP JUMPDEST PUSH1 0x0 PUSH2 0x1579 DUP3 PUSH2 0x1A5A JUMP JUMPDEST PUSH2 0x1583 DUP2 DUP6 PUSH2 0x1A94 JUMP JUMPDEST SWAP4 POP PUSH2 0x1593 DUP2 DUP6 PUSH1 0x20 DUP7 ADD PUSH2 0x1AFD JUMP JUMPDEST PUSH2 0x159C DUP2 PUSH2 0x1CDB JUMP JUMPDEST DUP5 ADD SWAP2 POP POP SWAP3 SWAP2 POP POP JUMP JUMPDEST PUSH1 0x0 PUSH2 0x15B2 DUP3 PUSH2 0x1A5A JUMP JUMPDEST PUSH2 0x15BC DUP2 DUP6 PUSH2 0x1AA5 JUMP JUMPDEST SWAP4 POP PUSH2 0x15CC DUP2 DUP6 PUSH1 0x20 DUP7 ADD PUSH2 0x1AFD JUMP JUMPDEST DUP1 DUP5 ADD SWAP2 POP POP SWAP3 SWAP2 POP POP JUMP JUMPDEST PUSH1 0x0 DUP2 SLOAD PUSH2 0x15E5 DUP2 PUSH2 0x1B30 JUMP JUMPDEST PUSH2 0x15EF DUP2 DUP7 PUSH2 0x1AA5 JUMP JUMPDEST SWAP5 POP PUSH1 0x1 DUP3 AND PUSH1 0x0 DUP2 EQ PUSH2 0x160A JUMPI PUSH1 0x1 DUP2 EQ PUSH2 0x161B JUMPI PUSH2 0x164E JUMP JUMPDEST PUSH1 0xFF NOT DUP4 AND DUP7 MSTORE DUP2 DUP7 ADD SWAP4 POP PUSH2 0x164E JUMP JUMPDEST PUSH2 0x1624 DUP6 PUSH2 0x1A3A JUMP JUMPDEST PUSH1 0x0 JUMPDEST DUP4 DUP2 LT ISZERO PUSH2 0x1646 JUMPI DUP2 SLOAD DUP2 DUP10 ADD MSTORE PUSH1 0x1 DUP3 ADD SWAP2 POP PUSH1 0x20 DUP2 ADD SWAP1 POP PUSH2 0x1627 JUMP JUMPDEST DUP4 DUP9 ADD SWAP6 POP POP POP JUMPDEST POP POP POP SWAP3 SWAP2 POP POP JUMP JUMPDEST PUSH1 0x0 PUSH2 0x1664 PUSH1 0x20 DUP4 PUSH2 0x1A94 JUMP JUMPDEST SWAP2 POP PUSH2 0x166F DUP3 PUSH2 0x1CEC JUMP JUMPDEST PUSH1 0x20 DUP3 ADD SWAP1 POP SWAP2 SWAP1 POP JUMP JUMPDEST PUSH1 0x0 PUSH2 0x1687 PUSH1 0xC DUP4 PUSH2 0x1A94 JUMP JUMPDEST SWAP2 POP PUSH2 0x1692 DUP3 PUSH2 0x1D15 JUMP JUMPDEST PUSH1 0x20 DUP3 ADD SWAP1 POP SWAP2 SWAP1 POP JUMP JUMPDEST PUSH1 0x0 PUSH2 0x16AA PUSH1 0x12 DUP4 PUSH2 0x1A94 JUMP JUMPDEST SWAP2 POP PUSH2 0x16B5 DUP3 PUSH2 0x1D3E JUMP JUMPDEST PUSH1 0x20 DUP3 ADD SWAP1 POP SWAP2 SWAP1 POP JUMP JUMPDEST PUSH1 0x0 PUSH2 0x16CD PUSH1 0xC DUP4 PUSH2 0x1A94 JUMP JUMPDEST SWAP2 POP PUSH2 0x16D8 DUP3 PUSH2 0x1D67 JUMP JUMPDEST PUSH1 0x20 DUP3 ADD SWAP1 POP SWAP2 SWAP1 POP JUMP JUMPDEST PUSH1 0x0 PUSH2 0x16F0 PUSH1 0x15 DUP4 PUSH2 0x1A94 JUMP JUMPDEST SWAP2 POP PUSH2 0x16FB DUP3 PUSH2 0x1D90 JUMP JUMPDEST PUSH1 0x20 DUP3 ADD SWAP1 POP SWAP2 SWAP1 POP JUMP JUMPDEST PUSH1 0x0 PUSH2 0x1713 PUSH1 0x12 DUP4 PUSH2 0x1A94 JUMP JUMPDEST SWAP2 POP PUSH2 0x171E DUP3 PUSH2 0x1DB9 JUMP JUMPDEST PUSH1 0x20 DUP3 ADD SWAP1 POP SWAP2 SWAP1 POP JUMP JUMPDEST PUSH1 0x0 PUSH2 0x1736 PUSH1 0x13 DUP4 PUSH2 0x1A94 JUMP JUMPDEST SWAP2 POP PUSH2 0x1741 DUP3 PUSH2 0x1DE2 JUMP JUMPDEST PUSH1 0x20 DUP3 ADD SWAP1 POP SWAP2 SWAP1 POP JUMP JUMPDEST PUSH1 0x0 PUSH2 0x120 DUP4 ADD PUSH1 0x0 DUP4 ADD MLOAD PUSH2 0x1765 PUSH1 0x0 DUP7 ADD DUP3 PUSH2 0x183B JUMP JUMPDEST POP PUSH1 0x20 DUP4 ADD MLOAD DUP5 DUP3 SUB PUSH1 0x20 DUP7 ADD MSTORE PUSH2 0x177D DUP3 DUP3 PUSH2 0x1535 JUMP JUMPDEST SWAP2 POP POP PUSH1 0x40 DUP4 ADD MLOAD DUP5 DUP3 SUB PUSH1 0x40 DUP7 ADD MSTORE PUSH2 0x1797 DUP3 DUP3 PUSH2 0x1535 JUMP JUMPDEST SWAP2 POP POP PUSH1 0x60 DUP4 ADD MLOAD PUSH2 0x17AC PUSH1 0x60 DUP7 ADD DUP3 PUSH2 0x183B JUMP JUMPDEST POP PUSH1 0x80 DUP4 ADD MLOAD DUP5 DUP3 SUB PUSH1 0x80 DUP7 ADD MSTORE PUSH2 0x17C4 DUP3 DUP3 PUSH2 0x1535 JUMP JUMPDEST SWAP2 POP POP PUSH1 0xA0 DUP4 ADD MLOAD DUP5 DUP3 SUB PUSH1 0xA0 DUP7 ADD MSTORE PUSH2 0x17DE DUP3 DUP3 PUSH2 0x1535 JUMP JUMPDEST SWAP2 POP POP PUSH1 0xC0 DUP4 ADD MLOAD DUP5 DUP3 SUB PUSH1 0xC0 DUP7 ADD MSTORE PUSH2 0x17F8 DUP3 DUP3 PUSH2 0x14D7 JUMP JUMPDEST SWAP2 POP POP PUSH1 0xE0 DUP4 ADD MLOAD DUP5 DUP3 SUB PUSH1 0xE0 DUP7 ADD MSTORE PUSH2 0x1812 DUP3 DUP3 PUSH2 0x14D7 JUMP JUMPDEST SWAP2 POP POP PUSH2 0x100 DUP4 ADD MLOAD DUP5 DUP3 SUB PUSH2 0x100 DUP7 ADD MSTORE PUSH2 0x182E DUP3 DUP3 PUSH2 0x14D7 JUMP JUMPDEST SWAP2 POP POP DUP1 SWAP2 POP POP SWAP3 SWAP2 POP POP JUMP JUMPDEST PUSH2 0x1844 DUP2 PUSH2 0x1AE4 JUMP JUMPDEST DUP3 MSTORE POP POP JUMP JUMPDEST PUSH2 0x1853 DUP2 PUSH2 0x1AE4 JUMP JUMPDEST DUP3 MSTORE POP POP JUMP JUMPDEST PUSH1 0x0 PUSH2 0x1865 DUP3 DUP5 PUSH2 0x15A7 JUMP JUMPDEST SWAP2 POP DUP2 SWAP1 POP SWAP3 SWAP2 POP POP JUMP JUMPDEST PUSH1 0x0 PUSH2 0x187C DUP3 DUP5 PUSH2 0x15D8 JUMP JUMPDEST SWAP2 POP DUP2 SWAP1 POP SWAP3 SWAP2 POP POP JUMP JUMPDEST PUSH1 0x0 PUSH1 0x20 DUP3 ADD SWAP1 POP DUP2 DUP2 SUB PUSH1 0x0 DUP4 ADD MSTORE PUSH2 0x18A1 DUP2 DUP5 PUSH2 0x156E JUMP JUMPDEST SWAP1 POP SWAP3 SWAP2 POP POP JUMP JUMPDEST PUSH1 0x0 PUSH1 0x20 DUP3 ADD SWAP1 POP DUP2 DUP2 SUB PUSH1 0x0 DUP4 ADD MSTORE PUSH2 0x18C2 DUP2 PUSH2 0x1657 JUMP JUMPDEST SWAP1 POP SWAP2 SWAP1 POP JUMP JUMPDEST PUSH1 0x0 PUSH1 0x20 DUP3 ADD SWAP1 POP DUP2 DUP2 SUB PUSH1 0x0 DUP4 ADD MSTORE PUSH2 0x18E2 DUP2 PUSH2 0x167A JUMP JUMPDEST SWAP1 POP SWAP2 SWAP1 POP JUMP JUMPDEST PUSH1 0x0 PUSH1 0x20 DUP3 ADD SWAP1 POP DUP2 DUP2 SUB PUSH1 0x0 DUP4 ADD MSTORE PUSH2 0x1902 DUP2 PUSH2 0x169D JUMP JUMPDEST SWAP1 POP SWAP2 SWAP1 POP JUMP JUMPDEST PUSH1 0x0 PUSH1 0x40 DUP3 ADD SWAP1 POP DUP2 DUP2 SUB PUSH1 0x0 DUP4 ADD MSTORE PUSH2 0x1922 DUP2 PUSH2 0x16C0 JUMP JUMPDEST SWAP1 POP PUSH2 0x1931 PUSH1 0x20 DUP4 ADD DUP5 PUSH2 0x184A JUMP JUMPDEST SWAP3 SWAP2 POP POP JUMP JUMPDEST PUSH1 0x0 PUSH1 0x20 DUP3 ADD SWAP1 POP DUP2 DUP2 SUB PUSH1 0x0 DUP4 ADD MSTORE PUSH2 0x1950 DUP2 PUSH2 0x16E3 JUMP JUMPDEST SWAP1 POP SWAP2 SWAP1 POP JUMP JUMPDEST PUSH1 0x0 PUSH1 0x20 DUP3 ADD SWAP1 POP DUP2 DUP2 SUB PUSH1 0x0 DUP4 ADD MSTORE PUSH2 0x1970 DUP2 PUSH2 0x1706 JUMP JUMPDEST SWAP1 POP SWAP2 SWAP1 POP JUMP JUMPDEST PUSH1 0x0 PUSH1 0x20 DUP3 ADD SWAP1 POP DUP2 DUP2 SUB PUSH1 0x0 DUP4 ADD MSTORE PUSH2 0x1990 DUP2 PUSH2 0x1729 JUMP JUMPDEST SWAP1 POP SWAP2 SWAP1 POP JUMP JUMPDEST PUSH1 0x0 PUSH1 0x20 DUP3 ADD SWAP1 POP DUP2 DUP2 SUB PUSH1 0x0 DUP4 ADD MSTORE PUSH2 0x19B1 DUP2 DUP5 PUSH2 0x174C JUMP JUMPDEST SWAP1 POP SWAP3 SWAP2 POP POP JUMP JUMPDEST PUSH1 0x0 PUSH1 0x20 DUP3 ADD SWAP1 POP PUSH2 0x19CE PUSH1 0x0 DUP4 ADD DUP5 PUSH2 0x184A JUMP JUMPDEST SWAP3 SWAP2 POP POP JUMP JUMPDEST PUSH1 0x0 PUSH2 0x19DE PUSH2 0x19EF JUMP JUMPDEST SWAP1 POP PUSH2 0x19EA DUP3 DUP3 PUSH2 0x1B62 JUMP JUMPDEST SWAP2 SWAP1 POP JUMP JUMPDEST PUSH1 0x0 PUSH1 0x40 MLOAD SWAP1 POP SWAP1 JUMP JUMPDEST PUSH1 0x0 PUSH8 0xFFFFFFFFFFFFFFFF DUP3 GT ISZERO PUSH2 0x1A14 JUMPI PUSH2 0x1A13 PUSH2 0x1C98 JUMP JUMPDEST JUMPDEST PUSH2 0x1A1D DUP3 PUSH2 0x1CDB JUMP JUMPDEST SWAP1 POP PUSH1 0x20 DUP2 ADD SWAP1 POP SWAP2 SWAP1 POP JUMP JUMPDEST PUSH1 0x0 DUP2 SWAP1 POP PUSH1 0x20 DUP3 ADD SWAP1 POP SWAP2 SWAP1 POP JUMP JUMPDEST PUSH1 0x0 DUP2 SWAP1 POP DUP2 PUSH1 0x0 MSTORE PUSH1 0x20 PUSH1 0x0 KECCAK256 SWAP1 POP SWAP2 SWAP1 POP JUMP JUMPDEST PUSH1 0x0 DUP2 MLOAD SWAP1 POP SWAP2 SWAP1 POP JUMP JUMPDEST PUSH1 0x0 DUP2 MLOAD SWAP1 POP SWAP2 SWAP1 POP JUMP JUMPDEST PUSH1 0x0 PUSH1 0x20 DUP3 ADD SWAP1 POP SWAP2 SWAP1 POP JUMP JUMPDEST PUSH1 0x0 DUP3 DUP3 MSTORE PUSH1 0x20 DUP3 ADD SWAP1 POP SWAP3 SWAP2 POP POP JUMP JUMPDEST PUSH1 0x0 DUP3 DUP3 MSTORE PUSH1 0x20 DUP3 ADD SWAP1 POP SWAP3 SWAP2 POP POP JUMP JUMPDEST PUSH1 0x0 DUP3 DUP3 MSTORE PUSH1 0x20 DUP3 ADD SWAP1 POP SWAP3 SWAP2 POP POP JUMP JUMPDEST PUSH1 0x0 DUP2 SWAP1 POP SWAP3 SWAP2 POP POP JUMP JUMPDEST PUSH1 0x0 PUSH2 0x1ABB DUP3 PUSH2 0x1AE4 JUMP JUMPDEST SWAP2 POP PUSH2 0x1AC6 DUP4 PUSH2 0x1AE4 JUMP JUMPDEST SWAP3 POP DUP3 DUP3 LT ISZERO PUSH2 0x1AD9 JUMPI PUSH2 0x1AD8 PUSH2 0x1BDC JUMP JUMPDEST JUMPDEST DUP3 DUP3 SUB SWAP1 POP SWAP3 SWAP2 POP POP JUMP JUMPDEST PUSH1 0x0 DUP2 SWAP1 POP SWAP2 SWAP1 POP JUMP JUMPDEST DUP3 DUP2 DUP4 CALLDATACOPY PUSH1 0x0 DUP4 DUP4 ADD MSTORE POP POP POP JUMP JUMPDEST PUSH1 0x0 JUMPDEST DUP4 DUP2 LT ISZERO PUSH2 0x1B1B JUMPI DUP1 DUP3 ADD MLOAD DUP2 DUP5 ADD MSTORE PUSH1 0x20 DUP2 ADD SWAP1 POP PUSH2 0x1B00 JUMP JUMPDEST DUP4 DUP2 GT ISZERO PUSH2 0x1B2A JUMPI PUSH1 0x0 DUP5 DUP5 ADD MSTORE JUMPDEST POP POP POP POP JUMP JUMPDEST PUSH1 0x0 PUSH1 0x2 DUP3 DIV SWAP1 POP PUSH1 0x1 DUP3 AND DUP1 PUSH2 0x1B48 JUMPI PUSH1 0x7F DUP3 AND SWAP2 POP JUMPDEST PUSH1 0x20 DUP3 LT DUP2 EQ ISZERO PUSH2 0x1B5C JUMPI PUSH2 0x1B5B PUSH2 0x1C0B JUMP JUMPDEST JUMPDEST POP SWAP2 SWAP1 POP JUMP JUMPDEST PUSH2 0x1B6B DUP3 PUSH2 0x1CDB JUMP JUMPDEST DUP2 ADD DUP2 DUP2 LT PUSH8 0xFFFFFFFFFFFFFFFF DUP3 GT OR ISZERO PUSH2 0x1B8A JUMPI PUSH2 0x1B89 PUSH2 0x1C98 JUMP JUMPDEST JUMPDEST DUP1 PUSH1 0x40 MSTORE POP POP POP JUMP JUMPDEST PUSH1 0x0 PUSH2 0x1B9E DUP3 PUSH2 0x1AE4 JUMP JUMPDEST SWAP2 POP PUSH32 0xFFFFFFFFFFFFFFFFFFFFFFFFFFFFFFFFFFFFFFFFFFFFFFFFFFFFFFFFFFFFFFFF DUP3 EQ ISZERO PUSH2 0x1BD1 JUMPI PUSH2 0x1BD0 PUSH2 0x1BDC JUMP JUMPDEST JUMPDEST PUSH1 0x1 DUP3 ADD SWAP1 POP SWAP2 SWAP1 POP JUMP JUMPDEST PUSH32 0x4E487B7100000000000000000000000000000000000000000000000000000000 PUSH1 0x0 MSTORE PUSH1 0x11 PUSH1 0x4 MSTORE PUSH1 0x24 PUSH1 0x0 REVERT JUMPDEST PUSH32 0x4E487B7100000000000000000000000000000000000000000000000000000000 PUSH1 0x0 MSTORE PUSH1 0x22 PUSH1 0x4 MSTORE PUSH1 0x24 PUSH1 0x0 REVERT JUMPDEST PUSH32 0x4E487B7100000000000000000000000000000000000000000000000000000000 PUSH1 0x0 MSTORE PUSH1 0x31 PUSH1 0x4 MSTORE PUSH1 0x24 PUSH1 0x0 REVERT JUMPDEST PUSH32 0x4E487B7100000000000000000000000000000000000000000000000000000000 PUSH1 0x0 MSTORE PUSH1 0x32 PUSH1 0x4 MSTORE PUSH1 0x24 PUSH1 0x0 REVERT JUMPDEST PUSH32 0x4E487B7100000000000000000000000000000000000000000000000000000000 PUSH1 0x0 MSTORE PUSH1 0x41 PUSH1 0x4 MSTORE PUSH1 0x24 PUSH1 0x0 REVERT JUMPDEST PUSH1 0x0 DUP1 REVERT JUMPDEST PUSH1 0x0 DUP1 REVERT JUMPDEST PUSH1 0x0 DUP1 REVERT JUMPDEST PUSH1 0x0 DUP1 REVERT JUMPDEST PUSH1 0x0 PUSH1 0x1F NOT PUSH1 0x1F DUP4 ADD AND SWAP1 POP SWAP2 SWAP1 POP JUMP JUMPDEST PUSH32 0x596F752061726520696E2061757468656E74696361746564206E6574776F726B PUSH1 0x0 DUP3 ADD MSTORE POP JUMP JUMPDEST PUSH32 0x4E6F206F776E6572736869700000000000000000000000000000000000000000 PUSH1 0x0 DUP3 ADD MSTORE POP JUMP JUMPDEST PUSH32 0x4361736520494420697320696E76616C69640000000000000000000000000000 PUSH1 0x0 DUP3 ADD MSTORE POP JUMP JUMPDEST PUSH32 0x5573657220437265617465640000000000000000000000000000000000000000 PUSH1 0x0 DUP3 ADD MSTORE POP JUMP JUMPDEST PUSH32 0x4361736520616464656420746F206163636F756E740000000000000000000000 PUSH1 0x0 DUP3 ADD MSTORE POP JUMP JUMPDEST PUSH32 0x5573657220494420697320696E76616C69640000000000000000000000000000 PUSH1 0x0 DUP3 ADD MSTORE POP JUMP JUMPDEST PUSH32 0x4F776E657220494420697320496E76616C696400000000000000000000000000 PUSH1 0x0 DUP3 ADD MSTORE POP JUMP JUMPDEST PUSH2 0x1E14 DUP2 PUSH2 0x1AE4 JUMP JUMPDEST DUP2 EQ PUSH2 0x1E1F JUMPI PUSH1 0x0 DUP1 REVERT JUMPDEST POP JUMP INVALID LOG2 PUSH5 0x6970667358 0x22 SLT KECCAK256 0x5E DUP14 0xED PUSH29 0x906E94F22CF1D96AD1678375596B4AC2674B2ACE6DE863F332DF0E2E64 PUSH20 0x6F6C634300080600330000000000000000000000 "
		},
		"gasEstimates": {
			"creation": {
				"codeDepositCost": "1553600",
				"executionCost": "6630",
				"totalCost": "1560230"
			},
			"external": {
				"appendIntoChain(uint256,uint256,uint256)": "infinite",
				"createCase(uint256,uint256)": "infinite",
				"getUserDetails(uint256)": "infinite",
				"login(uint256,string,string)": "infinite",
				"noOfUsers()": "2430",
				"register(string,string,uint256,string,string)": "infinite",
				"transferOwnerShip(uint256,uint256,uint256)": "infinite"
			}
		},
		"methodIdentifiers": {
			"appendIntoChain(uint256,uint256,uint256)": "84fb60ff",
			"createCase(uint256,uint256)": "4519035f",
			"getUserDetails(uint256)": "1c1a9f7b",
			"login(uint256,string,string)": "ca8dedc0",
			"noOfUsers()": "01934a83",
			"register(string,string,uint256,string,string)": "8499cfe3",
			"transferOwnerShip(uint256,uint256,uint256)": "af03b010"
		}
	},
	"abi": [
		{
			"anonymous": false,
			"inputs": [
				{
					"indexed": false,
					"internalType": "string",
					"name": "message",
					"type": "string"
				}
			],
			"name": "appendChain",
			"type": "event"
		},
		{
			"anonymous": false,
			"inputs": [
				{
					"indexed": false,
					"internalType": "string",
					"name": "message",
					"type": "string"
				}
			],
			"name": "createCaseInfo",
			"type": "event"
		},
		{
			"anonymous": false,
			"inputs": [
				{
					"indexed": false,
					"internalType": "string",
					"name": "message",
					"type": "string"
				},
				{
					"indexed": false,
					"internalType": "uint256",
					"name": "",
					"type": "uint256"
				}
			],
			"name": "createUser",
			"type": "event"
		},
		{
			"inputs": [
				{
					"internalType": "uint256",
					"name": "_senderId",
					"type": "uint256"
				},
				{
					"internalType": "uint256",
					"name": "_receiverId",
					"type": "uint256"
				},
				{
					"internalType": "uint256",
					"name": "_caseId",
					"type": "uint256"
				}
			],
			"name": "appendIntoChain",
			"outputs": [],
			"stateMutability": "nonpayable",
			"type": "function"
		},
		{
			"inputs": [
				{
					"internalType": "uint256",
					"name": "_id",
					"type": "uint256"
				},
				{
					"internalType": "uint256",
					"name": "_caseId",
					"type": "uint256"
				}
			],
			"name": "createCase",
			"outputs": [],
			"stateMutability": "nonpayable",
			"type": "function"
		},
		{
			"inputs": [
				{
					"internalType": "uint256",
					"name": "_id",
					"type": "uint256"
				}
			],
			"name": "getUserDetails",
			"outputs": [
				{
					"components": [
						{
							"internalType": "uint256",
							"name": "id",
							"type": "uint256"
						},
						{
							"internalType": "string",
							"name": "name",
							"type": "string"
						},
						{
							"internalType": "string",
							"name": "role",
							"type": "string"
						},
						{
							"internalType": "uint256",
							"name": "age",
							"type": "uint256"
						},
						{
							"internalType": "string",
							"name": "password",
							"type": "string"
						},
						{
							"internalType": "string",
							"name": "email",
							"type": "string"
						},
						{
							"internalType": "uint256[]",
							"name": "createdCases",
							"type": "uint256[]"
						},
						{
							"internalType": "uint256[]",
							"name": "onChainCases",
							"type": "uint256[]"
						},
						{
							"internalType": "uint256[]",
							"name": "ownershipCases",
							"type": "uint256[]"
						}
					],
					"internalType": "struct userStorage.User",
					"name": "",
					"type": "tuple"
				}
			],
			"stateMutability": "view",
			"type": "function"
		},
		{
			"inputs": [
				{
					"internalType": "uint256",
					"name": "_id",
					"type": "uint256"
				},
				{
					"internalType": "string",
					"name": "_email",
					"type": "string"
				},
				{
					"internalType": "string",
					"name": "_password",
					"type": "string"
				}
			],
			"name": "login",
			"outputs": [
				{
					"internalType": "string",
					"name": "",
					"type": "string"
				}
			],
			"stateMutability": "view",
			"type": "function"
		},
		{
			"inputs": [],
			"name": "noOfUsers",
			"outputs": [
				{
					"internalType": "uint256",
					"name": "",
					"type": "uint256"
				}
			],
			"stateMutability": "view",
			"type": "function"
		},
		{
			"inputs": [
				{
					"internalType": "string",
					"name": "_name",
					"type": "string"
				},
				{
					"internalType": "string",
					"name": "_role",
					"type": "string"
				},
				{
					"internalType": "uint256",
					"name": "_age",
					"type": "uint256"
				},
				{
					"internalType": "string",
					"name": "_password",
					"type": "string"
				},
				{
					"internalType": "string",
					"name": "_email",
					"type": "string"
				}
			],
			"name": "register",
			"outputs": [],
			"stateMutability": "nonpayable",
			"type": "function"
		},
		{
			"inputs": [
				{
					"internalType": "uint256",
					"name": "_senderId",
					"type": "uint256"
				},
				{
					"internalType": "uint256",
					"name": "_receiverId",
					"type": "uint256"
				},
				{
					"internalType": "uint256",
					"name": "_caseId",
					"type": "uint256"
				}
			],
			"name": "transferOwnerShip",
			"outputs": [],
			"stateMutability": "nonpayable",
			"type": "function"
		}
	]
}